{
  "contractName": "DAOGourmetFood",
  "abi": [
    {
      "inputs": [
        {
          "internalType": "address",
          "name": "_dao",
          "type": "address"
        }
      ],
      "stateMutability": "nonpayable",
      "type": "constructor"
    },
    {
      "anonymous": false,
      "inputs": [
        {
          "indexed": true,
          "internalType": "address",
          "name": "owner",
          "type": "address"
        },
        {
          "indexed": true,
          "internalType": "address",
          "name": "spender",
          "type": "address"
        },
        {
          "indexed": false,
          "internalType": "uint256",
          "name": "value",
          "type": "uint256"
        }
      ],
      "name": "Approval",
      "type": "event"
    },
    {
      "anonymous": false,
      "inputs": [
        {
          "indexed": true,
          "internalType": "address",
          "name": "delegator",
          "type": "address"
        },
        {
          "indexed": true,
          "internalType": "address",
          "name": "fromDelegate",
          "type": "address"
        },
        {
          "indexed": true,
          "internalType": "address",
          "name": "toDelegate",
          "type": "address"
        }
      ],
      "name": "DelegateChanged",
      "type": "event"
    },
    {
      "anonymous": false,
      "inputs": [
        {
          "indexed": true,
          "internalType": "address",
          "name": "delegate",
          "type": "address"
        },
        {
          "indexed": false,
          "internalType": "uint256",
          "name": "previousBalance",
          "type": "uint256"
        },
        {
          "indexed": false,
          "internalType": "uint256",
          "name": "newBalance",
          "type": "uint256"
        }
      ],
      "name": "DelegateVotesChanged",
      "type": "event"
    },
    {
      "anonymous": false,
      "inputs": [
        {
          "indexed": true,
          "internalType": "address",
          "name": "previousOwner",
          "type": "address"
        },
        {
          "indexed": true,
          "internalType": "address",
          "name": "newOwner",
          "type": "address"
        }
      ],
      "name": "OwnershipTransferred",
      "type": "event"
    },
    {
      "anonymous": false,
      "inputs": [
        {
          "indexed": true,
          "internalType": "bytes32",
          "name": "role",
          "type": "bytes32"
        },
        {
          "indexed": true,
          "internalType": "bytes32",
          "name": "previousAdminRole",
          "type": "bytes32"
        },
        {
          "indexed": true,
          "internalType": "bytes32",
          "name": "newAdminRole",
          "type": "bytes32"
        }
      ],
      "name": "RoleAdminChanged",
      "type": "event"
    },
    {
      "anonymous": false,
      "inputs": [
        {
          "indexed": true,
          "internalType": "bytes32",
          "name": "role",
          "type": "bytes32"
        },
        {
          "indexed": true,
          "internalType": "address",
          "name": "account",
          "type": "address"
        },
        {
          "indexed": true,
          "internalType": "address",
          "name": "sender",
          "type": "address"
        }
      ],
      "name": "RoleGranted",
      "type": "event"
    },
    {
      "anonymous": false,
      "inputs": [
        {
          "indexed": true,
          "internalType": "bytes32",
          "name": "role",
          "type": "bytes32"
        },
        {
          "indexed": true,
          "internalType": "address",
          "name": "account",
          "type": "address"
        },
        {
          "indexed": true,
          "internalType": "address",
          "name": "sender",
          "type": "address"
        }
      ],
      "name": "RoleRevoked",
      "type": "event"
    },
    {
      "anonymous": false,
      "inputs": [
        {
          "indexed": true,
          "internalType": "address",
          "name": "from",
          "type": "address"
        },
        {
          "indexed": true,
          "internalType": "address",
          "name": "to",
          "type": "address"
        },
        {
          "indexed": false,
          "internalType": "uint256",
          "name": "value",
          "type": "uint256"
        }
      ],
      "name": "Transfer",
      "type": "event"
    },
    {
      "inputs": [],
      "name": "BURNER_ROLE",
      "outputs": [
        {
          "internalType": "bytes32",
          "name": "",
          "type": "bytes32"
        }
      ],
      "stateMutability": "view",
      "type": "function"
    },
    {
      "inputs": [],
      "name": "DEFAULT_ADMIN_ROLE",
      "outputs": [
        {
          "internalType": "bytes32",
          "name": "",
          "type": "bytes32"
        }
      ],
      "stateMutability": "view",
      "type": "function"
    },
    {
      "inputs": [],
      "name": "DOMAIN_SEPARATOR",
      "outputs": [
        {
          "internalType": "bytes32",
          "name": "",
          "type": "bytes32"
        }
      ],
      "stateMutability": "view",
      "type": "function"
    },
    {
      "inputs": [],
      "name": "MINTER_ROLE",
      "outputs": [
        {
          "internalType": "bytes32",
          "name": "",
          "type": "bytes32"
        }
      ],
      "stateMutability": "view",
      "type": "function"
    },
    {
      "inputs": [
        {
          "internalType": "address",
          "name": "owner",
          "type": "address"
        },
        {
          "internalType": "address",
          "name": "spender",
          "type": "address"
        }
      ],
      "name": "allowance",
      "outputs": [
        {
          "internalType": "uint256",
          "name": "",
          "type": "uint256"
        }
      ],
      "stateMutability": "view",
      "type": "function"
    },
    {
      "inputs": [
        {
          "internalType": "address",
          "name": "spender",
          "type": "address"
        },
        {
          "internalType": "uint256",
          "name": "amount",
          "type": "uint256"
        }
      ],
      "name": "approve",
      "outputs": [
        {
          "internalType": "bool",
          "name": "",
          "type": "bool"
        }
      ],
      "stateMutability": "nonpayable",
      "type": "function"
    },
    {
      "inputs": [
        {
          "internalType": "address",
          "name": "account",
          "type": "address"
        }
      ],
      "name": "balanceOf",
      "outputs": [
        {
          "internalType": "uint256",
          "name": "",
          "type": "uint256"
        }
      ],
      "stateMutability": "view",
      "type": "function"
    },
    {
      "inputs": [],
      "name": "cap",
      "outputs": [
        {
          "internalType": "uint256",
          "name": "",
          "type": "uint256"
        }
      ],
      "stateMutability": "view",
      "type": "function"
    },
    {
      "inputs": [
        {
          "internalType": "address",
          "name": "account",
          "type": "address"
        },
        {
          "internalType": "uint32",
          "name": "pos",
          "type": "uint32"
        }
      ],
      "name": "checkpoints",
      "outputs": [
        {
          "components": [
            {
              "internalType": "uint32",
              "name": "fromBlock",
              "type": "uint32"
            },
            {
              "internalType": "uint224",
              "name": "votes",
              "type": "uint224"
            }
          ],
          "internalType": "struct ERC20Votes.Checkpoint",
          "name": "",
          "type": "tuple"
        }
      ],
      "stateMutability": "view",
      "type": "function"
    },
    {
      "inputs": [],
      "name": "decimals",
      "outputs": [
        {
          "internalType": "uint8",
          "name": "",
          "type": "uint8"
        }
      ],
      "stateMutability": "view",
      "type": "function"
    },
    {
      "inputs": [
        {
          "internalType": "address",
          "name": "spender",
          "type": "address"
        },
        {
          "internalType": "uint256",
          "name": "subtractedValue",
          "type": "uint256"
        }
      ],
      "name": "decreaseAllowance",
      "outputs": [
        {
          "internalType": "bool",
          "name": "",
          "type": "bool"
        }
      ],
      "stateMutability": "nonpayable",
      "type": "function"
    },
    {
      "inputs": [
        {
          "internalType": "address",
          "name": "delegatee",
          "type": "address"
        }
      ],
      "name": "delegate",
      "outputs": [],
      "stateMutability": "nonpayable",
      "type": "function"
    },
    {
      "inputs": [
        {
          "internalType": "address",
          "name": "delegatee",
          "type": "address"
        },
        {
          "internalType": "uint256",
          "name": "nonce",
          "type": "uint256"
        },
        {
          "internalType": "uint256",
          "name": "expiry",
          "type": "uint256"
        },
        {
          "internalType": "uint8",
          "name": "v",
          "type": "uint8"
        },
        {
          "internalType": "bytes32",
          "name": "r",
          "type": "bytes32"
        },
        {
          "internalType": "bytes32",
          "name": "s",
          "type": "bytes32"
        }
      ],
      "name": "delegateBySig",
      "outputs": [],
      "stateMutability": "nonpayable",
      "type": "function"
    },
    {
      "inputs": [
        {
          "internalType": "address",
          "name": "account",
          "type": "address"
        }
      ],
      "name": "delegates",
      "outputs": [
        {
          "internalType": "address",
          "name": "",
          "type": "address"
        }
      ],
      "stateMutability": "view",
      "type": "function"
    },
    {
      "inputs": [
        {
          "internalType": "uint256",
          "name": "blockNumber",
          "type": "uint256"
        }
      ],
      "name": "getPastTotalSupply",
      "outputs": [
        {
          "internalType": "uint256",
          "name": "",
          "type": "uint256"
        }
      ],
      "stateMutability": "view",
      "type": "function"
    },
    {
      "inputs": [
        {
          "internalType": "address",
          "name": "account",
          "type": "address"
        },
        {
          "internalType": "uint256",
          "name": "blockNumber",
          "type": "uint256"
        }
      ],
      "name": "getPastVotes",
      "outputs": [
        {
          "internalType": "uint256",
          "name": "",
          "type": "uint256"
        }
      ],
      "stateMutability": "view",
      "type": "function"
    },
    {
      "inputs": [
        {
          "internalType": "bytes32",
          "name": "role",
          "type": "bytes32"
        }
      ],
      "name": "getRoleAdmin",
      "outputs": [
        {
          "internalType": "bytes32",
          "name": "",
          "type": "bytes32"
        }
      ],
      "stateMutability": "view",
      "type": "function"
    },
    {
      "inputs": [
        {
          "internalType": "address",
          "name": "account",
          "type": "address"
        }
      ],
      "name": "getVotes",
      "outputs": [
        {
          "internalType": "uint256",
          "name": "",
          "type": "uint256"
        }
      ],
      "stateMutability": "view",
      "type": "function"
    },
    {
      "inputs": [
        {
          "internalType": "bytes32",
          "name": "role",
          "type": "bytes32"
        },
        {
          "internalType": "address",
          "name": "account",
          "type": "address"
        }
      ],
      "name": "grantRole",
      "outputs": [],
      "stateMutability": "nonpayable",
      "type": "function"
    },
    {
      "inputs": [
        {
          "internalType": "bytes32",
          "name": "role",
          "type": "bytes32"
        },
        {
          "internalType": "address",
          "name": "account",
          "type": "address"
        }
      ],
      "name": "hasRole",
      "outputs": [
        {
          "internalType": "bool",
          "name": "",
          "type": "bool"
        }
      ],
      "stateMutability": "view",
      "type": "function"
    },
    {
      "inputs": [
        {
          "internalType": "address",
          "name": "spender",
          "type": "address"
        },
        {
          "internalType": "uint256",
          "name": "addedValue",
          "type": "uint256"
        }
      ],
      "name": "increaseAllowance",
      "outputs": [
        {
          "internalType": "bool",
          "name": "",
          "type": "bool"
        }
      ],
      "stateMutability": "nonpayable",
      "type": "function"
    },
    {
      "inputs": [],
      "name": "name",
      "outputs": [
        {
          "internalType": "string",
          "name": "",
          "type": "string"
        }
      ],
      "stateMutability": "view",
      "type": "function"
    },
    {
      "inputs": [
        {
          "internalType": "address",
          "name": "owner",
          "type": "address"
        }
      ],
      "name": "nonces",
      "outputs": [
        {
          "internalType": "uint256",
          "name": "",
          "type": "uint256"
        }
      ],
      "stateMutability": "view",
      "type": "function"
    },
    {
      "inputs": [
        {
          "internalType": "address",
          "name": "account",
          "type": "address"
        }
      ],
      "name": "numCheckpoints",
      "outputs": [
        {
          "internalType": "uint32",
          "name": "",
          "type": "uint32"
        }
      ],
      "stateMutability": "view",
      "type": "function"
    },
    {
      "inputs": [],
      "name": "owner",
      "outputs": [
        {
          "internalType": "address",
          "name": "",
          "type": "address"
        }
      ],
      "stateMutability": "view",
      "type": "function"
    },
    {
      "inputs": [
        {
          "internalType": "address",
          "name": "owner",
          "type": "address"
        },
        {
          "internalType": "address",
          "name": "spender",
          "type": "address"
        },
        {
          "internalType": "uint256",
          "name": "value",
          "type": "uint256"
        },
        {
          "internalType": "uint256",
          "name": "deadline",
          "type": "uint256"
        },
        {
          "internalType": "uint8",
          "name": "v",
          "type": "uint8"
        },
        {
          "internalType": "bytes32",
          "name": "r",
          "type": "bytes32"
        },
        {
          "internalType": "bytes32",
          "name": "s",
          "type": "bytes32"
        }
      ],
      "name": "permit",
      "outputs": [],
      "stateMutability": "nonpayable",
      "type": "function"
    },
    {
      "inputs": [],
      "name": "renounceOwnership",
      "outputs": [],
      "stateMutability": "nonpayable",
      "type": "function"
    },
    {
      "inputs": [
        {
          "internalType": "bytes32",
          "name": "role",
          "type": "bytes32"
        },
        {
          "internalType": "address",
          "name": "account",
          "type": "address"
        }
      ],
      "name": "renounceRole",
      "outputs": [],
      "stateMutability": "nonpayable",
      "type": "function"
    },
    {
      "inputs": [
        {
          "internalType": "bytes32",
          "name": "role",
          "type": "bytes32"
        },
        {
          "internalType": "address",
          "name": "account",
          "type": "address"
        }
      ],
      "name": "revokeRole",
      "outputs": [],
      "stateMutability": "nonpayable",
      "type": "function"
    },
    {
      "inputs": [
        {
          "internalType": "bytes4",
          "name": "interfaceId",
          "type": "bytes4"
        }
      ],
      "name": "supportsInterface",
      "outputs": [
        {
          "internalType": "bool",
          "name": "",
          "type": "bool"
        }
      ],
      "stateMutability": "view",
      "type": "function"
    },
    {
      "inputs": [],
      "name": "symbol",
      "outputs": [
        {
          "internalType": "string",
          "name": "",
          "type": "string"
        }
      ],
      "stateMutability": "view",
      "type": "function"
    },
    {
      "inputs": [],
      "name": "totalSupply",
      "outputs": [
        {
          "internalType": "uint256",
          "name": "",
          "type": "uint256"
        }
      ],
      "stateMutability": "view",
      "type": "function"
    },
    {
      "inputs": [
        {
          "internalType": "address",
          "name": "to",
          "type": "address"
        },
        {
          "internalType": "uint256",
          "name": "amount",
          "type": "uint256"
        }
      ],
      "name": "transfer",
      "outputs": [
        {
          "internalType": "bool",
          "name": "",
          "type": "bool"
        }
      ],
      "stateMutability": "nonpayable",
      "type": "function"
    },
    {
      "inputs": [
        {
          "internalType": "address",
          "name": "from",
          "type": "address"
        },
        {
          "internalType": "address",
          "name": "to",
          "type": "address"
        },
        {
          "internalType": "uint256",
          "name": "amount",
          "type": "uint256"
        }
      ],
      "name": "transferFrom",
      "outputs": [
        {
          "internalType": "bool",
          "name": "",
          "type": "bool"
        }
      ],
      "stateMutability": "nonpayable",
      "type": "function"
    },
    {
      "inputs": [
        {
          "internalType": "address",
          "name": "newOwner",
          "type": "address"
        }
      ],
      "name": "transferOwnership",
      "outputs": [],
      "stateMutability": "nonpayable",
      "type": "function"
    },
    {
      "inputs": [
        {
          "internalType": "address",
          "name": "to",
          "type": "address"
        },
        {
          "internalType": "uint256",
          "name": "amount",
          "type": "uint256"
        }
      ],
      "name": "mint",
      "outputs": [],
      "stateMutability": "nonpayable",
      "type": "function"
    },
    {
      "inputs": [
        {
          "internalType": "address",
          "name": "from",
          "type": "address"
        },
        {
          "internalType": "uint256",
          "name": "amount",
          "type": "uint256"
        }
      ],
      "name": "burn",
      "outputs": [],
      "stateMutability": "nonpayable",
      "type": "function"
    }
  ],
  "bytecode": "0x6101606040523480156200001257600080fd5b5060405162002bd338038062002bd38339810160408190526200003591620003d7565b6040518060400160405280600b81526020016a11dbdd5c9b595d119bdbd960aa1b81525080604051806040016040528060018152602001603160f81b81525069d3c21bcecceda10000006040518060400160405280600b81526020016a11dbdd5c9b595d119bdbd960aa1b8152506040518060400160405280600581526020016411d193d3d160da1b8152508160039080519060200190620000d992919062000331565b508051620000ef90600490602084019062000331565b50505060008111620001475760405162461bcd60e51b815260206004820152601560248201527f45524332304361707065643a2063617020697320300000000000000000000000604482015260640160405180910390fd5b60805281516020808401919091208251918301919091206101008290526101208190524660c0527f8b73c3c69bb8fe3d512ecc4cf759cc79239f7b179b0ffacaa9a75d522b39400f620001df8184846040805160208101859052908101839052606081018290524660808201523060a082015260009060c0016040516020818303038152906040528051906020012090509392505050565b60a0523060e052610140525062000206935062000200925050620002279050565b6200022b565b620002136000336200027d565b620002206000826200027d565b5062000445565b3390565b600a80546001600160a01b038381166001600160a01b0319831681179093556040519116919082907f8be0079c531659141344cd1fd0a4f28419497f9722a3daafe3b4186f6b6457e090600090a35050565b6200028982826200028d565b5050565b6000828152600b602090815260408083206001600160a01b038516845290915290205460ff1662000289576000828152600b602090815260408083206001600160a01b03851684529091529020805460ff19166001179055620002ed3390565b6001600160a01b0316816001600160a01b0316837f2f8788117e7eff1d82e926ec794901d17c78024a50270940304540a733656f0d60405160405180910390a45050565b8280546200033f9062000409565b90600052602060002090601f016020900481019282620003635760008555620003ae565b82601f106200037e57805160ff1916838001178555620003ae565b82800160010185558215620003ae579182015b82811115620003ae57825182559160200191906001019062000391565b50620003bc929150620003c0565b5090565b5b80821115620003bc5760008155600101620003c1565b600060208284031215620003ea57600080fd5b81516001600160a01b03811681146200040257600080fd5b9392505050565b600181811c908216806200041e57607f821691505b6020821081036200043f57634e487b7160e01b600052602260045260246000fd5b50919050565b60805160a05160c05160e05161010051610120516101405161272c620004a76000396000611382015260006113d1015260006113ac015260006113050152600061132f015260006113590152600081816103110152611e05015261272c6000f3fe608060405234801561001057600080fd5b50600436106102275760003560e01c806370a0823111610130578063a217fddf116100b8578063d53913931161007c578063d539139314610505578063d547741f1461052c578063dd62ed3e1461053f578063f1127ed814610552578063f2fde38b1461058f57600080fd5b8063a217fddf146104b1578063a457c2d7146104b9578063a9059cbb146104cc578063c3cda520146104df578063d505accf146104f257600080fd5b80638e539e8c116100ff5780638e539e8c1461045d57806391d148541461047057806395d89b41146104835780639ab24eb01461048b5780639dc29fac1461049e57600080fd5b806370a0823114610408578063715018a6146104315780637ecebe00146104395780638da5cb5b1461044c57600080fd5b8063355274ea116101b35780633a46b1a8116101825780633a46b1a81461036357806340c10f1914610376578063587cde1e146103895780635c19a95c146103cd5780636fcfff45146103e057600080fd5b8063355274ea1461030f5780633644e5151461033557806336568abe1461033d578063395093511461035057600080fd5b806323b872dd116101fa57806323b872dd1461028e578063248a9ca3146102a1578063282c51f3146102c45780632f2ff15d146102eb578063313ce5671461030057600080fd5b806301ffc9a71461022c57806306fdde0314610254578063095ea7b31461026957806318160ddd1461027c575b600080fd5b61023f61023a3660046122c6565b6105a2565b60405190151581526020015b60405180910390f35b61025c6105d9565b60405161024b919061231c565b61023f61027736600461236b565b61066b565b6002545b60405190815260200161024b565b61023f61029c366004612395565b610683565b6102806102af3660046123d1565b6000908152600b602052604090206001015490565b6102807f3c11d16cbaffd01df69ce1c404f6340ee057498f5f00246190ea54220576a84881565b6102fe6102f93660046123ea565b6106a7565b005b6040516012815260200161024b565b7f0000000000000000000000000000000000000000000000000000000000000000610280565b6102806106d1565b6102fe61034b3660046123ea565b6106e0565b61023f61035e36600461236b565b610763565b61028061037136600461236b565b610785565b6102fe61038436600461236b565b6107ff565b6103b5610397366004612416565b6001600160a01b039081166000908152600760205260409020541690565b6040516001600160a01b03909116815260200161024b565b6102fe6103db366004612416565b610833565b6103f36103ee366004612416565b610840565b60405163ffffffff909116815260200161024b565b610280610416366004612416565b6001600160a01b031660009081526020819052604090205490565b6102fe610862565b610280610447366004612416565b6108c8565b600a546001600160a01b03166103b5565b61028061046b3660046123d1565b6108e6565b61023f61047e3660046123ea565b610942565b61025c61096d565b610280610499366004612416565b61097c565b6102fe6104ac36600461236b565b610a03565b610280600081565b61023f6104c736600461236b565b610a37565b61023f6104da36600461236b565b610ab2565b6102fe6104ed366004612442565b610ac0565b6102fe61050036600461249a565b610bf6565b6102807f9f2df0fed2c77648de5860a4cc508cd0818c85b8b8a1ab4ceeef8d981c8956a681565b6102fe61053a3660046123ea565b610d5a565b61028061054d366004612504565b610d7f565b61056561056036600461252e565b610daa565b60408051825163ffffffff1681526020928301516001600160e01b0316928101929092520161024b565b6102fe61059d366004612416565b610e2e565b60006001600160e01b03198216637965db0b60e01b14806105d357506301ffc9a760e01b6001600160e01b03198316145b92915050565b6060600380546105e89061256e565b80601f01602080910402602001604051908101604052809291908181526020018280546106149061256e565b80156106615780601f1061063657610100808354040283529160200191610661565b820191906000526020600020905b81548152906001019060200180831161064457829003601f168201915b5050505050905090565b600033610679818585610ef6565b5060019392505050565b60003361069185828561101a565b61069c858585611094565b506001949350505050565b6000828152600b60205260409020600101546106c281611268565b6106cc8383611272565b505050565b60006106db6112f8565b905090565b6001600160a01b03811633146107555760405162461bcd60e51b815260206004820152602f60248201527f416363657373436f6e74726f6c3a2063616e206f6e6c792072656e6f756e636560448201526e103937b632b9903337b91039b2b63360891b60648201526084015b60405180910390fd5b61075f828261141f565b5050565b6000336106798185856107768383610d7f565b61078091906125b8565b610ef6565b60004382106107d65760405162461bcd60e51b815260206004820152601f60248201527f4552433230566f7465733a20626c6f636b206e6f7420796574206d696e656400604482015260640161074c565b6001600160a01b03831660009081526008602052604090206107f89083611486565b9392505050565b7f9f2df0fed2c77648de5860a4cc508cd0818c85b8b8a1ab4ceeef8d981c8956a661082981611268565b6106cc8383611543565b61083d338261154d565b50565b6001600160a01b0381166000908152600860205260408120546105d3906115c6565b600a546001600160a01b031633146108bc5760405162461bcd60e51b815260206004820181905260248201527f4f776e61626c653a2063616c6c6572206973206e6f7420746865206f776e6572604482015260640161074c565b6108c6600061162f565b565b6001600160a01b0381166000908152600560205260408120546105d3565b60004382106109375760405162461bcd60e51b815260206004820152601f60248201527f4552433230566f7465733a20626c6f636b206e6f7420796574206d696e656400604482015260640161074c565b6105d3600983611486565b6000918252600b602090815260408084206001600160a01b0393909316845291905290205460ff1690565b6060600480546105e89061256e565b6001600160a01b03811660009081526008602052604081205480156109f0576001600160a01b03831660009081526008602052604090206109be6001836125d0565b815481106109ce576109ce6125e7565b60009182526020909120015464010000000090046001600160e01b03166109f3565b60005b6001600160e01b03169392505050565b7f3c11d16cbaffd01df69ce1c404f6340ee057498f5f00246190ea54220576a848610a2d81611268565b6106cc8383611681565b60003381610a458286610d7f565b905083811015610aa55760405162461bcd60e51b815260206004820152602560248201527f45524332303a2064656372656173656420616c6c6f77616e63652062656c6f77604482015264207a65726f60d81b606482015260840161074c565b61069c8286868403610ef6565b600033610679818585611094565b83421115610b105760405162461bcd60e51b815260206004820152601d60248201527f4552433230566f7465733a207369676e61747572652065787069726564000000604482015260640161074c565b604080517fe48329057bfd03d55e49b547132e39cffd9c1820ad7b9d4c5307691425d15adf60208201526001600160a01b038816918101919091526060810186905260808101859052600090610b8a90610b829060a0016040516020818303038152906040528051906020012061168b565b8585856116d9565b9050610b9581611701565b8614610be35760405162461bcd60e51b815260206004820152601960248201527f4552433230566f7465733a20696e76616c6964206e6f6e636500000000000000604482015260640161074c565b610bed818861154d565b50505050505050565b83421115610c465760405162461bcd60e51b815260206004820152601d60248201527f45524332305065726d69743a206578706972656420646561646c696e65000000604482015260640161074c565b60007f6e71edae12b1b97f4d1f60370fef10105fa2faae0126114a169c64845d6126c9888888610c758c611701565b6040805160208101969096526001600160a01b0394851690860152929091166060840152608083015260a082015260c0810186905260e0016040516020818303038152906040528051906020012090506000610cd08261168b565b90506000610ce0828787876116d9565b9050896001600160a01b0316816001600160a01b031614610d435760405162461bcd60e51b815260206004820152601e60248201527f45524332305065726d69743a20696e76616c6964207369676e61747572650000604482015260640161074c565b610d4e8a8a8a610ef6565b50505050505050505050565b6000828152600b6020526040902060010154610d7581611268565b6106cc838361141f565b6001600160a01b03918216600090815260016020908152604080832093909416825291909152205490565b60408051808201909152600080825260208201526001600160a01b0383166000908152600860205260409020805463ffffffff8416908110610dee57610dee6125e7565b60009182526020918290206040805180820190915291015463ffffffff8116825264010000000090046001600160e01b0316918101919091529392505050565b600a546001600160a01b03163314610e885760405162461bcd60e51b815260206004820181905260248201527f4f776e61626c653a2063616c6c6572206973206e6f7420746865206f776e6572604482015260640161074c565b6001600160a01b038116610eed5760405162461bcd60e51b815260206004820152602660248201527f4f776e61626c653a206e6577206f776e657220697320746865207a65726f206160448201526564647265737360d01b606482015260840161074c565b61083d8161162f565b6001600160a01b038316610f585760405162461bcd60e51b8152602060048201526024808201527f45524332303a20617070726f76652066726f6d20746865207a65726f206164646044820152637265737360e01b606482015260840161074c565b6001600160a01b038216610fb95760405162461bcd60e51b815260206004820152602260248201527f45524332303a20617070726f766520746f20746865207a65726f206164647265604482015261737360f01b606482015260840161074c565b6001600160a01b0383811660008181526001602090815260408083209487168084529482529182902085905590518481527f8c5be1e5ebec7d5bd14f71427d1e84f3dd0314c0f7b2291e5b200ac8c7c3b925910160405180910390a3505050565b60006110268484610d7f565b9050600019811461108e57818110156110815760405162461bcd60e51b815260206004820152601d60248201527f45524332303a20696e73756666696369656e7420616c6c6f77616e6365000000604482015260640161074c565b61108e8484848403610ef6565b50505050565b6001600160a01b0383166110f85760405162461bcd60e51b815260206004820152602560248201527f45524332303a207472616e736665722066726f6d20746865207a65726f206164604482015264647265737360d81b606482015260840161074c565b6001600160a01b03821661115a5760405162461bcd60e51b815260206004820152602360248201527f45524332303a207472616e7366657220746f20746865207a65726f206164647260448201526265737360e81b606482015260840161074c565b6001600160a01b038316600090815260208190526040902054818110156111d25760405162461bcd60e51b815260206004820152602660248201527f45524332303a207472616e7366657220616d6f756e7420657863656564732062604482015265616c616e636560d01b606482015260840161074c565b6001600160a01b038085166000908152602081905260408082208585039055918516815290812080548492906112099084906125b8565b92505081905550826001600160a01b0316846001600160a01b03167fddf252ad1be2c89b69c2b068fc378daa952ba7f163c4a11628f55a4df523b3ef8460405161125591815260200190565b60405180910390a361108e848484611729565b61083d8133611734565b61127c8282610942565b61075f576000828152600b602090815260408083206001600160a01b03851684529091529020805460ff191660011790556112b43390565b6001600160a01b0316816001600160a01b0316837f2f8788117e7eff1d82e926ec794901d17c78024a50270940304540a733656f0d60405160405180910390a45050565b6000306001600160a01b037f00000000000000000000000000000000000000000000000000000000000000001614801561135157507f000000000000000000000000000000000000000000000000000000000000000046145b1561137b57507f000000000000000000000000000000000000000000000000000000000000000090565b50604080517f00000000000000000000000000000000000000000000000000000000000000006020808301919091527f0000000000000000000000000000000000000000000000000000000000000000828401527f000000000000000000000000000000000000000000000000000000000000000060608301524660808301523060a0808401919091528351808403909101815260c0909201909252805191012090565b6114298282610942565b1561075f576000828152600b602090815260408083206001600160a01b0385168085529252808320805460ff1916905551339285917ff6391f5c32d9c69d2a47ea670b442974b53935d1edc7fd64eb21e047a839171b9190a45050565b8154600090815b818110156114ea5760006114a18284611798565b9050848682815481106114b6576114b66125e7565b60009182526020909120015463ffffffff1611156114d6578092506114e4565b6114e18160016125b8565b91505b5061148d565b811561152e57846114fc6001846125d0565b8154811061150c5761150c6125e7565b60009182526020909120015464010000000090046001600160e01b0316611531565b60005b6001600160e01b031695945050505050565b61075f82826117b3565b6001600160a01b038281166000818152600760208181526040808420805485845282862054949093528787166001600160a01b03198416811790915590519190951694919391928592917f3134e8a2e6d97e929a7e54011ea5485d7d196dd5f0ba4d4ef95803e8e3fc257f9190a461108e82848361183d565b600063ffffffff82111561162b5760405162461bcd60e51b815260206004820152602660248201527f53616665436173743a2076616c756520646f65736e27742066697420696e203360448201526532206269747360d01b606482015260840161074c565b5090565b600a80546001600160a01b038381166001600160a01b0319831681179093556040519116919082907f8be0079c531659141344cd1fd0a4f28419497f9722a3daafe3b4186f6b6457e090600090a35050565b61075f828261197a565b60006105d36116986112f8565b8360405161190160f01b6020820152602281018390526042810182905260009060620160405160208183030381529060405280519060200120905092915050565b60008060006116ea87878787611992565b915091506116f781611a7f565b5095945050505050565b6001600160a01b03811660009081526005602052604090208054600181018255905b50919050565b6106cc838383611c35565b61173e8282610942565b61075f57611756816001600160a01b03166014611c67565b611761836020611c67565b6040516020016117729291906125fd565b60408051601f198184030181529082905262461bcd60e51b825261074c9160040161231c565b60006117a76002848418612672565b6107f8908484166125b8565b6117bd8282611e03565b6002546001600160e01b03101561182f5760405162461bcd60e51b815260206004820152603060248201527f4552433230566f7465733a20746f74616c20737570706c79207269736b73206f60448201526f766572666c6f77696e6720766f74657360801b606482015260840161074c565b61108e6009611e9083611e9c565b816001600160a01b0316836001600160a01b03161415801561185f5750600081115b156106cc576001600160a01b038316156118ed576001600160a01b0383166000908152600860205260408120819061189a9061201585611e9c565b91509150846001600160a01b03167fdec2bacdd2f05b59de34da9b523dff8be42e5e38e818c82fdb0bae774387a72483836040516118e2929190918252602082015260400190565b60405180910390a250505b6001600160a01b038216156106cc576001600160a01b0382166000908152600860205260408120819061192390611e9085611e9c565b91509150836001600160a01b03167fdec2bacdd2f05b59de34da9b523dff8be42e5e38e818c82fdb0bae774387a724838360405161196b929190918252602082015260400190565b60405180910390a25050505050565b6119848282612021565b61108e600961201583611e9c565b6000807f7fffffffffffffffffffffffffffffff5d576e7357a4501ddfe92f46681b20a08311156119c95750600090506003611a76565b8460ff16601b141580156119e157508460ff16601c14155b156119f25750600090506004611a76565b6040805160008082526020820180845289905260ff881692820192909252606081018690526080810185905260019060a0016020604051602081039080840390855afa158015611a46573d6000803e3d6000fd5b5050604051601f1901519150506001600160a01b038116611a6f57600060019250925050611a76565b9150600090505b94509492505050565b6000816004811115611a9357611a93612694565b03611a9b5750565b6001816004811115611aaf57611aaf612694565b03611afc5760405162461bcd60e51b815260206004820152601860248201527f45434453413a20696e76616c6964207369676e61747572650000000000000000604482015260640161074c565b6002816004811115611b1057611b10612694565b03611b5d5760405162461bcd60e51b815260206004820152601f60248201527f45434453413a20696e76616c6964207369676e6174757265206c656e67746800604482015260640161074c565b6003816004811115611b7157611b71612694565b03611bc95760405162461bcd60e51b815260206004820152602260248201527f45434453413a20696e76616c6964207369676e6174757265202773272076616c604482015261756560f01b606482015260840161074c565b6004816004811115611bdd57611bdd612694565b0361083d5760405162461bcd60e51b815260206004820152602260248201527f45434453413a20696e76616c6964207369676e6174757265202776272076616c604482015261756560f01b606482015260840161074c565b6001600160a01b038381166000908152600760205260408082205485841683529120546106cc9291821691168361183d565b60606000611c768360026126aa565b611c819060026125b8565b67ffffffffffffffff811115611c9957611c996126c9565b6040519080825280601f01601f191660200182016040528015611cc3576020820181803683370190505b509050600360fc1b81600081518110611cde57611cde6125e7565b60200101906001600160f81b031916908160001a905350600f60fb1b81600181518110611d0d57611d0d6125e7565b60200101906001600160f81b031916908160001a9053506000611d318460026126aa565b611d3c9060016125b8565b90505b6001811115611db4576f181899199a1a9b1b9c1cb0b131b232b360811b85600f1660108110611d7057611d706125e7565b1a60f81b828281518110611d8657611d866125e7565b60200101906001600160f81b031916908160001a90535060049490941c93611dad816126df565b9050611d3f565b5083156107f85760405162461bcd60e51b815260206004820181905260248201527f537472696e67733a20686578206c656e67746820696e73756666696369656e74604482015260640161074c565b7f000000000000000000000000000000000000000000000000000000000000000081611e2e60025490565b611e3891906125b8565b1115611e865760405162461bcd60e51b815260206004820152601960248201527f45524332304361707065643a2063617020657863656564656400000000000000604482015260640161074c565b61075f8282612176565b60006107f882846125b8565b825460009081908015611ee75785611eb56001836125d0565b81548110611ec557611ec56125e7565b60009182526020909120015464010000000090046001600160e01b0316611eea565b60005b6001600160e01b03169250611f0383858763ffffffff16565b9150600081118015611f4157504386611f1d6001846125d0565b81548110611f2d57611f2d6125e7565b60009182526020909120015463ffffffff16145b15611fa157611f4f8261225d565b86611f5b6001846125d0565b81548110611f6b57611f6b6125e7565b9060005260206000200160000160046101000a8154816001600160e01b0302191690836001600160e01b0316021790555061200c565b856040518060400160405280611fb6436115c6565b63ffffffff168152602001611fca8561225d565b6001600160e01b0390811690915282546001810184556000938452602093849020835194909301519091166401000000000263ffffffff909316929092179101555b50935093915050565b60006107f882846125d0565b6001600160a01b0382166120815760405162461bcd60e51b815260206004820152602160248201527f45524332303a206275726e2066726f6d20746865207a65726f206164647265736044820152607360f81b606482015260840161074c565b6001600160a01b038216600090815260208190526040902054818110156120f55760405162461bcd60e51b815260206004820152602260248201527f45524332303a206275726e20616d6f756e7420657863656564732062616c616e604482015261636560f01b606482015260840161074c565b6001600160a01b03831660009081526020819052604081208383039055600280548492906121249084906125d0565b90915550506040518281526000906001600160a01b038516907fddf252ad1be2c89b69c2b068fc378daa952ba7f163c4a11628f55a4df523b3ef9060200160405180910390a36106cc83600084611729565b6001600160a01b0382166121cc5760405162461bcd60e51b815260206004820152601f60248201527f45524332303a206d696e7420746f20746865207a65726f206164647265737300604482015260640161074c565b80600260008282546121de91906125b8565b90915550506001600160a01b0382166000908152602081905260408120805483929061220b9084906125b8565b90915550506040518181526001600160a01b038316906000907fddf252ad1be2c89b69c2b068fc378daa952ba7f163c4a11628f55a4df523b3ef9060200160405180910390a361075f60008383611729565b60006001600160e01b0382111561162b5760405162461bcd60e51b815260206004820152602760248201527f53616665436173743a2076616c756520646f65736e27742066697420696e20326044820152663234206269747360c81b606482015260840161074c565b6000602082840312156122d857600080fd5b81356001600160e01b0319811681146107f857600080fd5b60005b8381101561230b5781810151838201526020016122f3565b8381111561108e5750506000910152565b602081526000825180602084015261233b8160408501602087016122f0565b601f01601f19169190910160400192915050565b80356001600160a01b038116811461236657600080fd5b919050565b6000806040838503121561237e57600080fd5b6123878361234f565b946020939093013593505050565b6000806000606084860312156123aa57600080fd5b6123b38461234f565b92506123c16020850161234f565b9150604084013590509250925092565b6000602082840312156123e357600080fd5b5035919050565b600080604083850312156123fd57600080fd5b8235915061240d6020840161234f565b90509250929050565b60006020828403121561242857600080fd5b6107f88261234f565b803560ff8116811461236657600080fd5b60008060008060008060c0878903121561245b57600080fd5b6124648761234f565b9550602087013594506040870135935061248060608801612431565b92506080870135915060a087013590509295509295509295565b600080600080600080600060e0888a0312156124b557600080fd5b6124be8861234f565b96506124cc6020890161234f565b955060408801359450606088013593506124e860808901612431565b925060a0880135915060c0880135905092959891949750929550565b6000806040838503121561251757600080fd5b6125208361234f565b915061240d6020840161234f565b6000806040838503121561254157600080fd5b61254a8361234f565b9150602083013563ffffffff8116811461256357600080fd5b809150509250929050565b600181811c9082168061258257607f821691505b60208210810361172357634e487b7160e01b600052602260045260246000fd5b634e487b7160e01b600052601160045260246000fd5b600082198211156125cb576125cb6125a2565b500190565b6000828210156125e2576125e26125a2565b500390565b634e487b7160e01b600052603260045260246000fd5b7f416363657373436f6e74726f6c3a206163636f756e74200000000000000000008152600083516126358160178501602088016122f0565b7001034b99036b4b9b9b4b733903937b6329607d1b60179184019182015283516126668160288401602088016122f0565b01602801949350505050565b60008261268f57634e487b7160e01b600052601260045260246000fd5b500490565b634e487b7160e01b600052602160045260246000fd5b60008160001904831182151516156126c4576126c46125a2565b500290565b634e487b7160e01b600052604160045260246000fd5b6000816126ee576126ee6125a2565b50600019019056fea264697066735822122075bb544f30ab64e6475a88add5af4196c7f984af3160da49306ea8162dde222e64736f6c634300080d0033",
  "immutableReferences": {
    "5296": [
      {
        "length": 32,
        "start": 785
      },
      {
        "length": 32,
        "start": 7685
      }
    ],
    "7462": [
      {
        "length": 32,
        "start": 4953
      }
    ],
    "7464": [
      {
        "length": 32,
        "start": 4911
      }
    ],
    "7466": [
      {
        "length": 32,
        "start": 4869
      }
    ],
    "7468": [
      {
        "length": 32,
        "start": 5036
      }
    ],
    "7470": [
      {
        "length": 32,
        "start": 5073
      }
    ],
    "7472": [
      {
        "length": 32,
        "start": 4994
      }
    ]
  },
  "source": "// SPDX-License-Identifier: MIT\npragma solidity ^0.8.0;\n\nimport \"@openzeppelin/contracts/token/ERC20/ERC20.sol\";\nimport \"@openzeppelin/contracts/token/ERC20/extensions/ERC20Capped.sol\";\nimport \"@openzeppelin/contracts/token/ERC20/extensions/draft-ERC20Permit.sol\";\nimport \"@openzeppelin/contracts/token/ERC20/extensions/ERC20Votes.sol\";\nimport \"@openzeppelin/contracts/access/Ownable.sol\";\nimport \"@openzeppelin/contracts/access/AccessControl.sol\";\n\ncontract DAOGourmetFood is ERC20, ERC20Capped, ERC20Permit, ERC20Votes, Ownable, AccessControl {\n  bytes32 public constant MINTER_ROLE = keccak256(\"MINTER_ROLE\");\n  bytes32 public constant BURNER_ROLE = keccak256(\"BURNER_ROLE\");\n\n  constructor(address _dao) ERC20(\"GourmetFood\", \"GFOOD\") ERC20Capped(1000000 * 10 ** 18) ERC20Permit(\"GourmetFood\") {\n    _setupRole(DEFAULT_ADMIN_ROLE, msg.sender);\n    _setupRole(DEFAULT_ADMIN_ROLE, _dao);\n  }\n\n  /**\n   * Override required for ERC20Votes\n   * @param from - The sender of the food token\n   * @param to - The recipient of the food token\n   * @param amount - The amount of food tokens to send\n   */\n  function _afterTokenTransfer(address from, address to, uint256 amount) internal override(ERC20, ERC20Votes) {\n    super._afterTokenTransfer(from, to, amount);\n  }\n\n  /**\n   * Override required for ERC20Capped\n   */\n  function _mint(address to, uint256 amount) internal override(ERC20, ERC20Votes, ERC20Capped) {\n    super._mint(to, amount);\n  }\n\n  /**\n   * Override required for ERC20Votes\n   */\n  function _burn(address account, uint256 amount) internal override(ERC20, ERC20Votes) {\n    super._burn(account, amount);\n  }\n\n  /**\n   * Mints the implementation food token to the recipient\n   * @param to - The recipient of the food token\n   * @param amount - The amount of food tokens to mint\n   */\n  function mint(address to, uint256 amount) external onlyRole(MINTER_ROLE) {\n    _mint(to, amount);\n  }\n\n  /**\n   * Burns food tokens from a holder\n   * @param from - The holder of the food token\n   * @param amount - The amount of food tokens to burn\n   */\n  function burn(address from, uint256 amount) external onlyRole(BURNER_ROLE) {\n    _burn(from, amount);\n  }\n}\n",
  "sourcePath": "/Users/chris/workspace/ratalert/ratalert-dao/contracts/DAOGourmetFood.sol",
  "compiler": {
    "name": "solc",
    "version": "0.8.13+commit.abaa5c0e.Emscripten.clang"
  },
  "schemaVersion": "3.4.7",
  "updatedAt": "2022-05-25T16:23:02.376Z",
  "networkType": "ethereum",
  "devdoc": {
    "kind": "dev",
    "methods": {
      "DOMAIN_SEPARATOR()": {
        "details": "See {IERC20Permit-DOMAIN_SEPARATOR}."
      },
      "allowance(address,address)": {
        "details": "See {IERC20-allowance}."
      },
      "approve(address,uint256)": {
        "details": "See {IERC20-approve}. NOTE: If `amount` is the maximum `uint256`, the allowance is not updated on `transferFrom`. This is semantically equivalent to an infinite approval. Requirements: - `spender` cannot be the zero address."
      },
      "balanceOf(address)": {
        "details": "See {IERC20-balanceOf}."
      },
      "burn(address,uint256)": {
        "params": {
          "amount": "- The amount of food tokens to burn",
          "from": "- The holder of the food token"
        }
      },
      "cap()": {
        "details": "Returns the cap on the token's total supply."
      },
      "checkpoints(address,uint32)": {
        "details": "Get the `pos`-th checkpoint for `account`."
      },
      "decimals()": {
        "details": "Returns the number of decimals used to get its user representation. For example, if `decimals` equals `2`, a balance of `505` tokens should be displayed to a user as `5.05` (`505 / 10 ** 2`). Tokens usually opt for a value of 18, imitating the relationship between Ether and Wei. This is the value {ERC20} uses, unless this function is overridden; NOTE: This information is only used for _display_ purposes: it in no way affects any of the arithmetic of the contract, including {IERC20-balanceOf} and {IERC20-transfer}."
      },
      "decreaseAllowance(address,uint256)": {
        "details": "Atomically decreases the allowance granted to `spender` by the caller. This is an alternative to {approve} that can be used as a mitigation for problems described in {IERC20-approve}. Emits an {Approval} event indicating the updated allowance. Requirements: - `spender` cannot be the zero address. - `spender` must have allowance for the caller of at least `subtractedValue`."
      },
      "delegate(address)": {
        "details": "Delegate votes from the sender to `delegatee`."
      },
      "delegateBySig(address,uint256,uint256,uint8,bytes32,bytes32)": {
        "details": "Delegates votes from signer to `delegatee`"
      },
      "delegates(address)": {
        "details": "Get the address `account` is currently delegating to."
      },
      "getPastTotalSupply(uint256)": {
        "details": "Retrieve the `totalSupply` at the end of `blockNumber`. Note, this value is the sum of all balances. It is but NOT the sum of all the delegated votes! Requirements: - `blockNumber` must have been already mined"
      },
      "getPastVotes(address,uint256)": {
        "details": "Retrieve the number of votes for `account` at the end of `blockNumber`. Requirements: - `blockNumber` must have been already mined"
      },
      "getRoleAdmin(bytes32)": {
        "details": "Returns the admin role that controls `role`. See {grantRole} and {revokeRole}. To change a role's admin, use {_setRoleAdmin}."
      },
      "getVotes(address)": {
        "details": "Gets the current votes balance for `account`"
      },
      "grantRole(bytes32,address)": {
        "details": "Grants `role` to `account`. If `account` had not been already granted `role`, emits a {RoleGranted} event. Requirements: - the caller must have ``role``'s admin role."
      },
      "hasRole(bytes32,address)": {
        "details": "Returns `true` if `account` has been granted `role`."
      },
      "increaseAllowance(address,uint256)": {
        "details": "Atomically increases the allowance granted to `spender` by the caller. This is an alternative to {approve} that can be used as a mitigation for problems described in {IERC20-approve}. Emits an {Approval} event indicating the updated allowance. Requirements: - `spender` cannot be the zero address."
      },
      "mint(address,uint256)": {
        "params": {
          "amount": "- The amount of food tokens to mint",
          "to": "- The recipient of the food token"
        }
      },
      "name()": {
        "details": "Returns the name of the token."
      },
      "nonces(address)": {
        "details": "See {IERC20Permit-nonces}."
      },
      "numCheckpoints(address)": {
        "details": "Get number of checkpoints for `account`."
      },
      "owner()": {
        "details": "Returns the address of the current owner."
      },
      "permit(address,address,uint256,uint256,uint8,bytes32,bytes32)": {
        "details": "See {IERC20Permit-permit}."
      },
      "renounceOwnership()": {
        "details": "Leaves the contract without owner. It will not be possible to call `onlyOwner` functions anymore. Can only be called by the current owner. NOTE: Renouncing ownership will leave the contract without an owner, thereby removing any functionality that is only available to the owner."
      },
      "renounceRole(bytes32,address)": {
        "details": "Revokes `role` from the calling account. Roles are often managed via {grantRole} and {revokeRole}: this function's purpose is to provide a mechanism for accounts to lose their privileges if they are compromised (such as when a trusted device is misplaced). If the calling account had been revoked `role`, emits a {RoleRevoked} event. Requirements: - the caller must be `account`."
      },
      "revokeRole(bytes32,address)": {
        "details": "Revokes `role` from `account`. If `account` had been granted `role`, emits a {RoleRevoked} event. Requirements: - the caller must have ``role``'s admin role."
      },
      "supportsInterface(bytes4)": {
        "details": "See {IERC165-supportsInterface}."
      },
      "symbol()": {
        "details": "Returns the symbol of the token, usually a shorter version of the name."
      },
      "totalSupply()": {
        "details": "See {IERC20-totalSupply}."
      },
      "transfer(address,uint256)": {
        "details": "See {IERC20-transfer}. Requirements: - `to` cannot be the zero address. - the caller must have a balance of at least `amount`."
      },
      "transferFrom(address,address,uint256)": {
        "details": "See {IERC20-transferFrom}. Emits an {Approval} event indicating the updated allowance. This is not required by the EIP. See the note at the beginning of {ERC20}. NOTE: Does not update the allowance if the current allowance is the maximum `uint256`. Requirements: - `from` and `to` cannot be the zero address. - `from` must have a balance of at least `amount`. - the caller must have allowance for ``from``'s tokens of at least `amount`."
      },
      "transferOwnership(address)": {
        "details": "Transfers ownership of the contract to a new account (`newOwner`). Can only be called by the current owner."
      }
    },
    "version": 1
  },
  "userdoc": {
    "kind": "user",
    "methods": {
      "burn(address,uint256)": {
        "notice": "Burns food tokens from a holder"
      },
      "mint(address,uint256)": {
        "notice": "Mints the implementation food token to the recipient"
      }
    },
    "version": 1
  }
}