{
  "contractName": "DummyV2",
  "abi": [
    {
      "anonymous": false,
      "inputs": [
        {
          "indexed": false,
          "internalType": "uint8",
          "name": "version",
          "type": "uint8"
        }
      ],
      "name": "Initialized",
      "type": "event"
    },
    {
      "anonymous": false,
      "inputs": [
        {
          "indexed": true,
          "internalType": "address",
          "name": "previousOwner",
          "type": "address"
        },
        {
          "indexed": true,
          "internalType": "address",
          "name": "newOwner",
          "type": "address"
        }
      ],
      "name": "OwnershipTransferred",
      "type": "event"
    },
    {
      "inputs": [],
      "name": "owner",
      "outputs": [
        {
          "internalType": "address",
          "name": "",
          "type": "address"
        }
      ],
      "stateMutability": "view",
      "type": "function"
    },
    {
      "inputs": [],
      "name": "renounceOwnership",
      "outputs": [],
      "stateMutability": "nonpayable",
      "type": "function"
    },
    {
      "inputs": [
        {
          "internalType": "address",
          "name": "newOwner",
          "type": "address"
        }
      ],
      "name": "transferOwnership",
      "outputs": [],
      "stateMutability": "nonpayable",
      "type": "function"
    },
    {
      "inputs": [],
      "name": "initialize",
      "outputs": [],
      "stateMutability": "nonpayable",
      "type": "function"
    },
    {
      "inputs": [
        {
          "internalType": "address",
          "name": "addr",
          "type": "address"
        }
      ],
      "name": "get",
      "outputs": [
        {
          "internalType": "uint256",
          "name": "",
          "type": "uint256"
        }
      ],
      "stateMutability": "view",
      "type": "function"
    },
    {
      "inputs": [
        {
          "internalType": "address",
          "name": "addr",
          "type": "address"
        },
        {
          "internalType": "uint256",
          "name": "value",
          "type": "uint256"
        }
      ],
      "name": "set",
      "outputs": [],
      "stateMutability": "nonpayable",
      "type": "function"
    },
    {
      "inputs": [
        {
          "internalType": "address",
          "name": "addr",
          "type": "address"
        }
      ],
      "name": "del",
      "outputs": [],
      "stateMutability": "nonpayable",
      "type": "function"
    }
  ],
  "bytecode": "0x608060405234801561001057600080fd5b50610596806100206000396000f3fe608060405234801561001057600080fd5b506004361061007d5760003560e01c80638da5cb5b1161005b5780638da5cb5b146100a7578063b9caebf4146100c7578063c2bc2efc146100da578063f2fde38b1461011157600080fd5b80633825d82814610082578063715018a6146100975780638129fc1c1461009f575b600080fd5b610095610090366004610446565b610124565b005b610095610173565b6100956101a9565b6033546040516001600160a01b0390911681526020015b60405180910390f35b6100956100d5366004610470565b61021e565b6101036100e8366004610470565b6001600160a01b031660009081526065602052604090205490565b6040519081526020016100be565b61009561011f366004610470565b610262565b6033546001600160a01b031633146101575760405162461bcd60e51b815260040161014e90610492565b60405180910390fd5b6001600160a01b03909116600090815260656020526040902055565b6033546001600160a01b0316331461019d5760405162461bcd60e51b815260040161014e90610492565b6101a760006102f6565b565b60006101b56001610348565b905080156101cd576000805461ff0019166101001790555b6101d56103d5565b801561021b576000805461ff0019169055604051600181527f7f26b83ff96e1f2b6a682f133852f6798a09c465da95921460cefb38474024989060200160405180910390a15b50565b6033546001600160a01b031633146102485760405162461bcd60e51b815260040161014e90610492565b6001600160a01b0316600090815260656020526040812055565b6033546001600160a01b0316331461028c5760405162461bcd60e51b815260040161014e90610492565b6001600160a01b0381166102f15760405162461bcd60e51b815260206004820152602660248201527f4f776e61626c653a206e6577206f776e657220697320746865207a65726f206160448201526564647265737360d01b606482015260840161014e565b61021b815b603380546001600160a01b038381166001600160a01b0319831681179093556040519116919082907f8be0079c531659141344cd1fd0a4f28419497f9722a3daafe3b4186f6b6457e090600090a35050565b60008054610100900460ff161561038f578160ff16600114801561036b5750303b155b6103875760405162461bcd60e51b815260040161014e906104c7565b506000919050565b60005460ff8084169116106103b65760405162461bcd60e51b815260040161014e906104c7565b506000805460ff191660ff92909216919091179055600190565b919050565b600054610100900460ff166103fc5760405162461bcd60e51b815260040161014e90610515565b6101a7600054610100900460ff166104265760405162461bcd60e51b815260040161014e90610515565b6101a7336102f6565b80356001600160a01b03811681146103d057600080fd5b6000806040838503121561045957600080fd5b6104628361042f565b946020939093013593505050565b60006020828403121561048257600080fd5b61048b8261042f565b9392505050565b6020808252818101527f4f776e61626c653a2063616c6c6572206973206e6f7420746865206f776e6572604082015260600190565b6020808252602e908201527f496e697469616c697a61626c653a20636f6e747261637420697320616c72656160408201526d191e481a5b9a5d1a585b1a5e995960921b606082015260800190565b6020808252602b908201527f496e697469616c697a61626c653a20636f6e7472616374206973206e6f74206960408201526a6e697469616c697a696e6760a81b60608201526080019056fea2646970667358221220594068a529f3d915bf4705aba9afea9cdfbdffbf34498e33601e909e82be8d4264736f6c634300080d0033",
  "immutableReferences": {},
  "source": "// SPDX-License-Identifier: MIT\n\npragma solidity ^0.8.0;\n\nimport \"@openzeppelin/contracts-upgradeable/access/OwnableUpgradeable.sol\";\nimport \"@openzeppelin/contracts-upgradeable/proxy/utils/Initializable.sol\";\n\ncontract DummyV2 is Initializable, OwnableUpgradeable {\n  mapping (address => uint) values;\n\n  function initialize() external initializer {\n    __Ownable_init();\n  }\n\n  function get(address addr) external view returns(uint) {\n    return values[addr];\n  }\n\n  function set(address addr, uint value) external onlyOwner {\n    values[addr] = value;\n  }\n\n  function del(address addr) external onlyOwner {\n    delete values[addr];\n  }\n}\n",
  "sourcePath": "/Users/chris/workspace/ratalert/ratalert-dao/contracts/DummyV2.sol",
  "compiler": {
    "name": "solc",
    "version": "0.8.13+commit.abaa5c0e.Emscripten.clang"
  },
  "schemaVersion": "3.4.7",
  "updatedAt": "2022-05-25T16:18:24.830Z",
  "devdoc": {
    "kind": "dev",
    "methods": {
      "owner()": {
        "details": "Returns the address of the current owner."
      },
      "renounceOwnership()": {
        "details": "Leaves the contract without owner. It will not be possible to call `onlyOwner` functions anymore. Can only be called by the current owner. NOTE: Renouncing ownership will leave the contract without an owner, thereby removing any functionality that is only available to the owner."
      },
      "transferOwnership(address)": {
        "details": "Transfers ownership of the contract to a new account (`newOwner`). Can only be called by the current owner."
      }
    },
    "version": 1
  },
  "userdoc": {
    "kind": "user",
    "methods": {},
    "version": 1
  }
}