{
  "contractName": "Dummy",
  "abi": [
    {
      "anonymous": false,
      "inputs": [
        {
          "indexed": false,
          "internalType": "uint8",
          "name": "version",
          "type": "uint8"
        }
      ],
      "name": "Initialized",
      "type": "event"
    },
    {
      "anonymous": false,
      "inputs": [
        {
          "indexed": true,
          "internalType": "address",
          "name": "previousOwner",
          "type": "address"
        },
        {
          "indexed": true,
          "internalType": "address",
          "name": "newOwner",
          "type": "address"
        }
      ],
      "name": "OwnershipTransferred",
      "type": "event"
    },
    {
      "inputs": [],
      "name": "owner",
      "outputs": [
        {
          "internalType": "address",
          "name": "",
          "type": "address"
        }
      ],
      "stateMutability": "view",
      "type": "function",
      "constant": true
    },
    {
      "inputs": [],
      "name": "renounceOwnership",
      "outputs": [],
      "stateMutability": "nonpayable",
      "type": "function"
    },
    {
      "inputs": [
        {
          "internalType": "address",
          "name": "newOwner",
          "type": "address"
        }
      ],
      "name": "transferOwnership",
      "outputs": [],
      "stateMutability": "nonpayable",
      "type": "function"
    },
    {
      "inputs": [],
      "name": "initialize",
      "outputs": [],
      "stateMutability": "nonpayable",
      "type": "function"
    },
    {
      "inputs": [
        {
          "internalType": "address",
          "name": "addr",
          "type": "address"
        }
      ],
      "name": "get",
      "outputs": [
        {
          "internalType": "uint256",
          "name": "",
          "type": "uint256"
        }
      ],
      "stateMutability": "view",
      "type": "function",
      "constant": true
    },
    {
      "inputs": [
        {
          "internalType": "address",
          "name": "addr",
          "type": "address"
        },
        {
          "internalType": "uint256",
          "name": "value",
          "type": "uint256"
        }
      ],
      "name": "set",
      "outputs": [],
      "stateMutability": "nonpayable",
      "type": "function"
    }
  ],
  "bytecode": "0x608060405234801561001057600080fd5b50610b16806100206000396000f3fe608060405234801561001057600080fd5b50600436106100625760003560e01c80633825d82814610067578063715018a6146100835780638129fc1c1461008d5780638da5cb5b14610097578063c2bc2efc146100b5578063f2fde38b146100e5575b600080fd5b610081600480360381019061007c919061077f565b610101565b005b61008b6101c5565b005b61009561024d565b005b61009f6102e1565b6040516100ac91906107ce565b60405180910390f35b6100cf60048036038101906100ca91906107e9565b61030b565b6040516100dc9190610825565b60405180910390f35b6100ff60048036038101906100fa91906107e9565b610354565b005b61010961044b565b73ffffffffffffffffffffffffffffffffffffffff166101276102e1565b73ffffffffffffffffffffffffffffffffffffffff161461017d576040517f08c379a00000000000000000000000000000000000000000000000000000000081526004016101749061089d565b60405180910390fd5b80606560008473ffffffffffffffffffffffffffffffffffffffff1673ffffffffffffffffffffffffffffffffffffffff168152602001908152602001600020819055505050565b6101cd61044b565b73ffffffffffffffffffffffffffffffffffffffff166101eb6102e1565b73ffffffffffffffffffffffffffffffffffffffff1614610241576040517f08c379a00000000000000000000000000000000000000000000000000000000081526004016102389061089d565b60405180910390fd5b61024b6000610453565b565b60006102596001610519565b9050801561027d576001600060016101000a81548160ff0219169083151502179055505b610285610609565b80156102de5760008060016101000a81548160ff0219169083151502179055507f7f26b83ff96e1f2b6a682f133852f6798a09c465da95921460cefb384740249860016040516102d5919061090f565b60405180910390a15b50565b6000603360009054906101000a900473ffffffffffffffffffffffffffffffffffffffff16905090565b6000606560008373ffffffffffffffffffffffffffffffffffffffff1673ffffffffffffffffffffffffffffffffffffffff168152602001908152602001600020549050919050565b61035c61044b565b73ffffffffffffffffffffffffffffffffffffffff1661037a6102e1565b73ffffffffffffffffffffffffffffffffffffffff16146103d0576040517f08c379a00000000000000000000000000000000000000000000000000000000081526004016103c79061089d565b60405180910390fd5b600073ffffffffffffffffffffffffffffffffffffffff168173ffffffffffffffffffffffffffffffffffffffff160361043f576040517f08c379a00000000000000000000000000000000000000000000000000000000081526004016104369061099c565b60405180910390fd5b61044881610453565b50565b600033905090565b6000603360009054906101000a900473ffffffffffffffffffffffffffffffffffffffff16905081603360006101000a81548173ffffffffffffffffffffffffffffffffffffffff021916908373ffffffffffffffffffffffffffffffffffffffff1602179055508173ffffffffffffffffffffffffffffffffffffffff168173ffffffffffffffffffffffffffffffffffffffff167f8be0079c531659141344cd1fd0a4f28419497f9722a3daafe3b4186f6b6457e060405160405180910390a35050565b60008060019054906101000a900460ff16156105905760018260ff16148015610548575061054630610662565b155b610587576040517f08c379a000000000000000000000000000000000000000000000000000000000815260040161057e90610a2e565b60405180910390fd5b60009050610604565b8160ff1660008054906101000a900460ff1660ff16106105e5576040517f08c379a00000000000000000000000000000000000000000000000000000000081526004016105dc90610a2e565b60405180910390fd5b816000806101000a81548160ff021916908360ff160217905550600190505b919050565b600060019054906101000a900460ff16610658576040517f08c379a000000000000000000000000000000000000000000000000000000000815260040161064f90610ac0565b60405180910390fd5b610660610685565b565b6000808273ffffffffffffffffffffffffffffffffffffffff163b119050919050565b600060019054906101000a900460ff166106d4576040517f08c379a00000000000000000000000000000000000000000000000000000000081526004016106cb90610ac0565b60405180910390fd5b6106e46106df61044b565b610453565b565b600080fd5b600073ffffffffffffffffffffffffffffffffffffffff82169050919050565b6000610716826106eb565b9050919050565b6107268161070b565b811461073157600080fd5b50565b6000813590506107438161071d565b92915050565b6000819050919050565b61075c81610749565b811461076757600080fd5b50565b60008135905061077981610753565b92915050565b60008060408385031215610796576107956106e6565b5b60006107a485828601610734565b92505060206107b58582860161076a565b9150509250929050565b6107c88161070b565b82525050565b60006020820190506107e360008301846107bf565b92915050565b6000602082840312156107ff576107fe6106e6565b5b600061080d84828501610734565b91505092915050565b61081f81610749565b82525050565b600060208201905061083a6000830184610816565b92915050565b600082825260208201905092915050565b7f4f776e61626c653a2063616c6c6572206973206e6f7420746865206f776e6572600082015250565b6000610887602083610840565b915061089282610851565b602082019050919050565b600060208201905081810360008301526108b68161087a565b9050919050565b6000819050919050565b600060ff82169050919050565b6000819050919050565b60006108f96108f46108ef846108bd565b6108d4565b6108c7565b9050919050565b610909816108de565b82525050565b60006020820190506109246000830184610900565b92915050565b7f4f776e61626c653a206e6577206f776e657220697320746865207a65726f206160008201527f6464726573730000000000000000000000000000000000000000000000000000602082015250565b6000610986602683610840565b91506109918261092a565b604082019050919050565b600060208201905081810360008301526109b581610979565b9050919050565b7f496e697469616c697a61626c653a20636f6e747261637420697320616c72656160008201527f647920696e697469616c697a6564000000000000000000000000000000000000602082015250565b6000610a18602e83610840565b9150610a23826109bc565b604082019050919050565b60006020820190508181036000830152610a4781610a0b565b9050919050565b7f496e697469616c697a61626c653a20636f6e7472616374206973206e6f74206960008201527f6e697469616c697a696e67000000000000000000000000000000000000000000602082015250565b6000610aaa602b83610840565b9150610ab582610a4e565b604082019050919050565b60006020820190508181036000830152610ad981610a9d565b905091905056fea26469706673582212208656763f01f258f3ef815c02121f902bc6c4458c46d51d17eaaa48db22910e2764736f6c634300080d0033",
  "immutableReferences": {},
  "source": "// SPDX-License-Identifier: MIT\n\npragma solidity ^0.8.0;\n\nimport \"@openzeppelin/contracts-upgradeable/access/OwnableUpgradeable.sol\";\nimport \"@openzeppelin/contracts-upgradeable/proxy/utils/Initializable.sol\";\n\ncontract Dummy is Initializable, OwnableUpgradeable {\n  mapping (address => uint) values;\n\n  function initialize() external initializer {\n    __Ownable_init();\n  }\n\n  function get(address addr) external view returns(uint) {\n    return values[addr];\n  }\n\n  function set(address addr, uint value) external onlyOwner {\n    values[addr] = value;\n  }\n}\n",
  "sourcePath": "/Users/chris/workspace/ratalert/ratalert-dao/contracts/Dummy.sol",
  "compiler": {
    "name": "solc",
    "version": "0.8.13+commit.abaa5c0e.Emscripten.clang"
  },
  "schemaVersion": "3.4.7",
  "updatedAt": "2022-05-04T14:36:01.489Z",
  "networkType": "ethereum",
  "devdoc": {
    "kind": "dev",
    "methods": {
      "owner()": {
        "details": "Returns the address of the current owner."
      },
      "renounceOwnership()": {
        "details": "Leaves the contract without owner. It will not be possible to call `onlyOwner` functions anymore. Can only be called by the current owner. NOTE: Renouncing ownership will leave the contract without an owner, thereby removing any functionality that is only available to the owner."
      },
      "transferOwnership(address)": {
        "details": "Transfers ownership of the contract to a new account (`newOwner`). Can only be called by the current owner."
      }
    },
    "version": 1
  },
  "userdoc": {
    "kind": "user",
    "methods": {},
    "version": 1
  }
}