{
  "contractName": "DummyV2",
  "abi": [
    {
      "anonymous": false,
      "inputs": [
        {
          "indexed": false,
          "internalType": "uint8",
          "name": "version",
          "type": "uint8"
        }
      ],
      "name": "Initialized",
      "type": "event"
    },
    {
      "anonymous": false,
      "inputs": [
        {
          "indexed": true,
          "internalType": "address",
          "name": "previousOwner",
          "type": "address"
        },
        {
          "indexed": true,
          "internalType": "address",
          "name": "newOwner",
          "type": "address"
        }
      ],
      "name": "OwnershipTransferred",
      "type": "event"
    },
    {
      "inputs": [],
      "name": "owner",
      "outputs": [
        {
          "internalType": "address",
          "name": "",
          "type": "address"
        }
      ],
      "stateMutability": "view",
      "type": "function",
      "constant": true
    },
    {
      "inputs": [],
      "name": "renounceOwnership",
      "outputs": [],
      "stateMutability": "nonpayable",
      "type": "function"
    },
    {
      "inputs": [
        {
          "internalType": "address",
          "name": "newOwner",
          "type": "address"
        }
      ],
      "name": "transferOwnership",
      "outputs": [],
      "stateMutability": "nonpayable",
      "type": "function"
    },
    {
      "inputs": [],
      "name": "initialize",
      "outputs": [],
      "stateMutability": "nonpayable",
      "type": "function"
    },
    {
      "inputs": [
        {
          "internalType": "address",
          "name": "addr",
          "type": "address"
        }
      ],
      "name": "get",
      "outputs": [
        {
          "internalType": "uint256",
          "name": "",
          "type": "uint256"
        }
      ],
      "stateMutability": "view",
      "type": "function",
      "constant": true
    },
    {
      "inputs": [
        {
          "internalType": "address",
          "name": "addr",
          "type": "address"
        },
        {
          "internalType": "uint256",
          "name": "value",
          "type": "uint256"
        }
      ],
      "name": "set",
      "outputs": [],
      "stateMutability": "nonpayable",
      "type": "function"
    },
    {
      "inputs": [
        {
          "internalType": "address",
          "name": "addr",
          "type": "address"
        }
      ],
      "name": "del",
      "outputs": [],
      "stateMutability": "nonpayable",
      "type": "function"
    }
  ],
  "bytecode": "0x608060405234801561001057600080fd5b50610c0f806100206000396000f3fe608060405234801561001057600080fd5b506004361061007d5760003560e01c80638da5cb5b1161005b5780638da5cb5b146100b2578063b9caebf4146100d0578063c2bc2efc146100ec578063f2fde38b1461011c5761007d565b80633825d82814610082578063715018a61461009e5780638129fc1c146100a8575b600080fd5b61009c60048036038101906100979190610878565b610138565b005b6100a66101fc565b005b6100b0610284565b005b6100ba610318565b6040516100c791906108c7565b60405180910390f35b6100ea60048036038101906100e591906108e2565b610342565b005b610106600480360381019061010191906108e2565b610404565b604051610113919061091e565b60405180910390f35b610136600480360381019061013191906108e2565b61044d565b005b610140610544565b73ffffffffffffffffffffffffffffffffffffffff1661015e610318565b73ffffffffffffffffffffffffffffffffffffffff16146101b4576040517f08c379a00000000000000000000000000000000000000000000000000000000081526004016101ab90610996565b60405180910390fd5b80606560008473ffffffffffffffffffffffffffffffffffffffff1673ffffffffffffffffffffffffffffffffffffffff168152602001908152602001600020819055505050565b610204610544565b73ffffffffffffffffffffffffffffffffffffffff16610222610318565b73ffffffffffffffffffffffffffffffffffffffff1614610278576040517f08c379a000000000000000000000000000000000000000000000000000000000815260040161026f90610996565b60405180910390fd5b610282600061054c565b565b60006102906001610612565b905080156102b4576001600060016101000a81548160ff0219169083151502179055505b6102bc610702565b80156103155760008060016101000a81548160ff0219169083151502179055507f7f26b83ff96e1f2b6a682f133852f6798a09c465da95921460cefb3847402498600160405161030c9190610a08565b60405180910390a15b50565b6000603360009054906101000a900473ffffffffffffffffffffffffffffffffffffffff16905090565b61034a610544565b73ffffffffffffffffffffffffffffffffffffffff16610368610318565b73ffffffffffffffffffffffffffffffffffffffff16146103be576040517f08c379a00000000000000000000000000000000000000000000000000000000081526004016103b590610996565b60405180910390fd5b606560008273ffffffffffffffffffffffffffffffffffffffff1673ffffffffffffffffffffffffffffffffffffffff1681526020019081526020016000206000905550565b6000606560008373ffffffffffffffffffffffffffffffffffffffff1673ffffffffffffffffffffffffffffffffffffffff168152602001908152602001600020549050919050565b610455610544565b73ffffffffffffffffffffffffffffffffffffffff16610473610318565b73ffffffffffffffffffffffffffffffffffffffff16146104c9576040517f08c379a00000000000000000000000000000000000000000000000000000000081526004016104c090610996565b60405180910390fd5b600073ffffffffffffffffffffffffffffffffffffffff168173ffffffffffffffffffffffffffffffffffffffff1603610538576040517f08c379a000000000000000000000000000000000000000000000000000000000815260040161052f90610a95565b60405180910390fd5b6105418161054c565b50565b600033905090565b6000603360009054906101000a900473ffffffffffffffffffffffffffffffffffffffff16905081603360006101000a81548173ffffffffffffffffffffffffffffffffffffffff021916908373ffffffffffffffffffffffffffffffffffffffff1602179055508173ffffffffffffffffffffffffffffffffffffffff168173ffffffffffffffffffffffffffffffffffffffff167f8be0079c531659141344cd1fd0a4f28419497f9722a3daafe3b4186f6b6457e060405160405180910390a35050565b60008060019054906101000a900460ff16156106895760018260ff16148015610641575061063f3061075b565b155b610680576040517f08c379a000000000000000000000000000000000000000000000000000000000815260040161067790610b27565b60405180910390fd5b600090506106fd565b8160ff1660008054906101000a900460ff1660ff16106106de576040517f08c379a00000000000000000000000000000000000000000000000000000000081526004016106d590610b27565b60405180910390fd5b816000806101000a81548160ff021916908360ff160217905550600190505b919050565b600060019054906101000a900460ff16610751576040517f08c379a000000000000000000000000000000000000000000000000000000000815260040161074890610bb9565b60405180910390fd5b61075961077e565b565b6000808273ffffffffffffffffffffffffffffffffffffffff163b119050919050565b600060019054906101000a900460ff166107cd576040517f08c379a00000000000000000000000000000000000000000000000000000000081526004016107c490610bb9565b60405180910390fd5b6107dd6107d8610544565b61054c565b565b600080fd5b600073ffffffffffffffffffffffffffffffffffffffff82169050919050565b600061080f826107e4565b9050919050565b61081f81610804565b811461082a57600080fd5b50565b60008135905061083c81610816565b92915050565b6000819050919050565b61085581610842565b811461086057600080fd5b50565b6000813590506108728161084c565b92915050565b6000806040838503121561088f5761088e6107df565b5b600061089d8582860161082d565b92505060206108ae85828601610863565b9150509250929050565b6108c181610804565b82525050565b60006020820190506108dc60008301846108b8565b92915050565b6000602082840312156108f8576108f76107df565b5b60006109068482850161082d565b91505092915050565b61091881610842565b82525050565b6000602082019050610933600083018461090f565b92915050565b600082825260208201905092915050565b7f4f776e61626c653a2063616c6c6572206973206e6f7420746865206f776e6572600082015250565b6000610980602083610939565b915061098b8261094a565b602082019050919050565b600060208201905081810360008301526109af81610973565b9050919050565b6000819050919050565b600060ff82169050919050565b6000819050919050565b60006109f26109ed6109e8846109b6565b6109cd565b6109c0565b9050919050565b610a02816109d7565b82525050565b6000602082019050610a1d60008301846109f9565b92915050565b7f4f776e61626c653a206e6577206f776e657220697320746865207a65726f206160008201527f6464726573730000000000000000000000000000000000000000000000000000602082015250565b6000610a7f602683610939565b9150610a8a82610a23565b604082019050919050565b60006020820190508181036000830152610aae81610a72565b9050919050565b7f496e697469616c697a61626c653a20636f6e747261637420697320616c72656160008201527f647920696e697469616c697a6564000000000000000000000000000000000000602082015250565b6000610b11602e83610939565b9150610b1c82610ab5565b604082019050919050565b60006020820190508181036000830152610b4081610b04565b9050919050565b7f496e697469616c697a61626c653a20636f6e7472616374206973206e6f74206960008201527f6e697469616c697a696e67000000000000000000000000000000000000000000602082015250565b6000610ba3602b83610939565b9150610bae82610b47565b604082019050919050565b60006020820190508181036000830152610bd281610b96565b905091905056fea264697066735822122090ee1d81e8df056db5e12d5d399df87a519ceacf52112d80eb16e981fc33c02c64736f6c634300080d0033",
  "immutableReferences": {},
  "source": "// SPDX-License-Identifier: MIT\n\npragma solidity ^0.8.0;\n\nimport \"@openzeppelin/contracts-upgradeable/access/OwnableUpgradeable.sol\";\nimport \"@openzeppelin/contracts-upgradeable/proxy/utils/Initializable.sol\";\n\ncontract DummyV2 is Initializable, OwnableUpgradeable {\n  mapping (address => uint) values;\n\n  function initialize() external initializer {\n    __Ownable_init();\n  }\n\n  function get(address addr) external view returns(uint) {\n    return values[addr];\n  }\n\n  function set(address addr, uint value) external onlyOwner {\n    values[addr] = value;\n  }\n\n  function del(address addr) external onlyOwner {\n    delete values[addr];\n  }\n}\n",
  "sourcePath": "/Users/chris/workspace/ratalert/ratalert-dao/contracts/DummyV2.sol",
  "compiler": {
    "name": "solc",
    "version": "0.8.13+commit.abaa5c0e.Emscripten.clang"
  },
  "schemaVersion": "3.4.7",
  "updatedAt": "2022-05-04T14:36:01.491Z",
  "networkType": "ethereum",
  "devdoc": {
    "kind": "dev",
    "methods": {
      "owner()": {
        "details": "Returns the address of the current owner."
      },
      "renounceOwnership()": {
        "details": "Leaves the contract without owner. It will not be possible to call `onlyOwner` functions anymore. Can only be called by the current owner. NOTE: Renouncing ownership will leave the contract without an owner, thereby removing any functionality that is only available to the owner."
      },
      "transferOwnership(address)": {
        "details": "Transfers ownership of the contract to a new account (`newOwner`). Can only be called by the current owner."
      }
    },
    "version": 1
  },
  "userdoc": {
    "kind": "user",
    "methods": {},
    "version": 1
  }
}