{
  "contractName": "RatGovernor",
  "abi": [
    {
      "inputs": [
        {
          "internalType": "contract IVotes",
          "name": "_token",
          "type": "address"
        },
        {
          "internalType": "contract TimelockController",
          "name": "_timelock",
          "type": "address"
        },
        {
          "internalType": "uint256",
          "name": "_votingDelay",
          "type": "uint256"
        },
        {
          "internalType": "uint256",
          "name": "_votingPeriod",
          "type": "uint256"
        },
        {
          "internalType": "uint256",
          "name": "_proposalThreshold",
          "type": "uint256"
        },
        {
          "internalType": "uint256",
          "name": "_quorumNumeratorValue",
          "type": "uint256"
        }
      ],
      "stateMutability": "nonpayable",
      "type": "constructor"
    },
    {
      "inputs": [],
      "name": "Empty",
      "type": "error"
    },
    {
      "anonymous": false,
      "inputs": [
        {
          "indexed": false,
          "internalType": "uint256",
          "name": "proposalId",
          "type": "uint256"
        }
      ],
      "name": "ProposalCanceled",
      "type": "event"
    },
    {
      "anonymous": false,
      "inputs": [
        {
          "indexed": false,
          "internalType": "uint256",
          "name": "proposalId",
          "type": "uint256"
        },
        {
          "indexed": false,
          "internalType": "address",
          "name": "proposer",
          "type": "address"
        },
        {
          "indexed": false,
          "internalType": "address[]",
          "name": "targets",
          "type": "address[]"
        },
        {
          "indexed": false,
          "internalType": "uint256[]",
          "name": "values",
          "type": "uint256[]"
        },
        {
          "indexed": false,
          "internalType": "string[]",
          "name": "signatures",
          "type": "string[]"
        },
        {
          "indexed": false,
          "internalType": "bytes[]",
          "name": "calldatas",
          "type": "bytes[]"
        },
        {
          "indexed": false,
          "internalType": "uint256",
          "name": "startBlock",
          "type": "uint256"
        },
        {
          "indexed": false,
          "internalType": "uint256",
          "name": "endBlock",
          "type": "uint256"
        },
        {
          "indexed": false,
          "internalType": "string",
          "name": "description",
          "type": "string"
        }
      ],
      "name": "ProposalCreated",
      "type": "event"
    },
    {
      "anonymous": false,
      "inputs": [
        {
          "indexed": false,
          "internalType": "uint256",
          "name": "proposalId",
          "type": "uint256"
        }
      ],
      "name": "ProposalExecuted",
      "type": "event"
    },
    {
      "anonymous": false,
      "inputs": [
        {
          "indexed": false,
          "internalType": "uint256",
          "name": "proposalId",
          "type": "uint256"
        },
        {
          "indexed": false,
          "internalType": "uint256",
          "name": "eta",
          "type": "uint256"
        }
      ],
      "name": "ProposalQueued",
      "type": "event"
    },
    {
      "anonymous": false,
      "inputs": [
        {
          "indexed": false,
          "internalType": "uint256",
          "name": "oldProposalThreshold",
          "type": "uint256"
        },
        {
          "indexed": false,
          "internalType": "uint256",
          "name": "newProposalThreshold",
          "type": "uint256"
        }
      ],
      "name": "ProposalThresholdSet",
      "type": "event"
    },
    {
      "anonymous": false,
      "inputs": [
        {
          "indexed": false,
          "internalType": "uint256",
          "name": "oldQuorumNumerator",
          "type": "uint256"
        },
        {
          "indexed": false,
          "internalType": "uint256",
          "name": "newQuorumNumerator",
          "type": "uint256"
        }
      ],
      "name": "QuorumNumeratorUpdated",
      "type": "event"
    },
    {
      "anonymous": false,
      "inputs": [
        {
          "indexed": false,
          "internalType": "address",
          "name": "oldTimelock",
          "type": "address"
        },
        {
          "indexed": false,
          "internalType": "address",
          "name": "newTimelock",
          "type": "address"
        }
      ],
      "name": "TimelockChange",
      "type": "event"
    },
    {
      "anonymous": false,
      "inputs": [
        {
          "indexed": true,
          "internalType": "address",
          "name": "voter",
          "type": "address"
        },
        {
          "indexed": false,
          "internalType": "uint256",
          "name": "proposalId",
          "type": "uint256"
        },
        {
          "indexed": false,
          "internalType": "uint8",
          "name": "support",
          "type": "uint8"
        },
        {
          "indexed": false,
          "internalType": "uint256",
          "name": "weight",
          "type": "uint256"
        },
        {
          "indexed": false,
          "internalType": "string",
          "name": "reason",
          "type": "string"
        }
      ],
      "name": "VoteCast",
      "type": "event"
    },
    {
      "anonymous": false,
      "inputs": [
        {
          "indexed": true,
          "internalType": "address",
          "name": "voter",
          "type": "address"
        },
        {
          "indexed": false,
          "internalType": "uint256",
          "name": "proposalId",
          "type": "uint256"
        },
        {
          "indexed": false,
          "internalType": "uint8",
          "name": "support",
          "type": "uint8"
        },
        {
          "indexed": false,
          "internalType": "uint256",
          "name": "weight",
          "type": "uint256"
        },
        {
          "indexed": false,
          "internalType": "string",
          "name": "reason",
          "type": "string"
        },
        {
          "indexed": false,
          "internalType": "bytes",
          "name": "params",
          "type": "bytes"
        }
      ],
      "name": "VoteCastWithParams",
      "type": "event"
    },
    {
      "anonymous": false,
      "inputs": [
        {
          "indexed": false,
          "internalType": "uint256",
          "name": "oldVotingDelay",
          "type": "uint256"
        },
        {
          "indexed": false,
          "internalType": "uint256",
          "name": "newVotingDelay",
          "type": "uint256"
        }
      ],
      "name": "VotingDelaySet",
      "type": "event"
    },
    {
      "anonymous": false,
      "inputs": [
        {
          "indexed": false,
          "internalType": "uint256",
          "name": "oldVotingPeriod",
          "type": "uint256"
        },
        {
          "indexed": false,
          "internalType": "uint256",
          "name": "newVotingPeriod",
          "type": "uint256"
        }
      ],
      "name": "VotingPeriodSet",
      "type": "event"
    },
    {
      "inputs": [],
      "name": "BALLOT_TYPEHASH",
      "outputs": [
        {
          "internalType": "bytes32",
          "name": "",
          "type": "bytes32"
        }
      ],
      "stateMutability": "view",
      "type": "function",
      "constant": true
    },
    {
      "inputs": [],
      "name": "COUNTING_MODE",
      "outputs": [
        {
          "internalType": "string",
          "name": "",
          "type": "string"
        }
      ],
      "stateMutability": "pure",
      "type": "function",
      "constant": true
    },
    {
      "inputs": [],
      "name": "EXTENDED_BALLOT_TYPEHASH",
      "outputs": [
        {
          "internalType": "bytes32",
          "name": "",
          "type": "bytes32"
        }
      ],
      "stateMutability": "view",
      "type": "function",
      "constant": true
    },
    {
      "inputs": [
        {
          "internalType": "uint256",
          "name": "proposalId",
          "type": "uint256"
        },
        {
          "internalType": "uint8",
          "name": "support",
          "type": "uint8"
        }
      ],
      "name": "castVote",
      "outputs": [
        {
          "internalType": "uint256",
          "name": "",
          "type": "uint256"
        }
      ],
      "stateMutability": "nonpayable",
      "type": "function"
    },
    {
      "inputs": [
        {
          "internalType": "uint256",
          "name": "proposalId",
          "type": "uint256"
        },
        {
          "internalType": "uint8",
          "name": "support",
          "type": "uint8"
        },
        {
          "internalType": "uint8",
          "name": "v",
          "type": "uint8"
        },
        {
          "internalType": "bytes32",
          "name": "r",
          "type": "bytes32"
        },
        {
          "internalType": "bytes32",
          "name": "s",
          "type": "bytes32"
        }
      ],
      "name": "castVoteBySig",
      "outputs": [
        {
          "internalType": "uint256",
          "name": "",
          "type": "uint256"
        }
      ],
      "stateMutability": "nonpayable",
      "type": "function"
    },
    {
      "inputs": [
        {
          "internalType": "uint256",
          "name": "proposalId",
          "type": "uint256"
        },
        {
          "internalType": "uint8",
          "name": "support",
          "type": "uint8"
        },
        {
          "internalType": "string",
          "name": "reason",
          "type": "string"
        }
      ],
      "name": "castVoteWithReason",
      "outputs": [
        {
          "internalType": "uint256",
          "name": "",
          "type": "uint256"
        }
      ],
      "stateMutability": "nonpayable",
      "type": "function"
    },
    {
      "inputs": [
        {
          "internalType": "uint256",
          "name": "proposalId",
          "type": "uint256"
        },
        {
          "internalType": "uint8",
          "name": "support",
          "type": "uint8"
        },
        {
          "internalType": "string",
          "name": "reason",
          "type": "string"
        },
        {
          "internalType": "bytes",
          "name": "params",
          "type": "bytes"
        }
      ],
      "name": "castVoteWithReasonAndParams",
      "outputs": [
        {
          "internalType": "uint256",
          "name": "",
          "type": "uint256"
        }
      ],
      "stateMutability": "nonpayable",
      "type": "function"
    },
    {
      "inputs": [
        {
          "internalType": "uint256",
          "name": "proposalId",
          "type": "uint256"
        },
        {
          "internalType": "uint8",
          "name": "support",
          "type": "uint8"
        },
        {
          "internalType": "string",
          "name": "reason",
          "type": "string"
        },
        {
          "internalType": "bytes",
          "name": "params",
          "type": "bytes"
        },
        {
          "internalType": "uint8",
          "name": "v",
          "type": "uint8"
        },
        {
          "internalType": "bytes32",
          "name": "r",
          "type": "bytes32"
        },
        {
          "internalType": "bytes32",
          "name": "s",
          "type": "bytes32"
        }
      ],
      "name": "castVoteWithReasonAndParamsBySig",
      "outputs": [
        {
          "internalType": "uint256",
          "name": "",
          "type": "uint256"
        }
      ],
      "stateMutability": "nonpayable",
      "type": "function"
    },
    {
      "inputs": [
        {
          "internalType": "address[]",
          "name": "targets",
          "type": "address[]"
        },
        {
          "internalType": "uint256[]",
          "name": "values",
          "type": "uint256[]"
        },
        {
          "internalType": "bytes[]",
          "name": "calldatas",
          "type": "bytes[]"
        },
        {
          "internalType": "bytes32",
          "name": "descriptionHash",
          "type": "bytes32"
        }
      ],
      "name": "execute",
      "outputs": [
        {
          "internalType": "uint256",
          "name": "",
          "type": "uint256"
        }
      ],
      "stateMutability": "payable",
      "type": "function",
      "payable": true
    },
    {
      "inputs": [
        {
          "internalType": "address",
          "name": "account",
          "type": "address"
        },
        {
          "internalType": "uint256",
          "name": "blockNumber",
          "type": "uint256"
        }
      ],
      "name": "getVotes",
      "outputs": [
        {
          "internalType": "uint256",
          "name": "",
          "type": "uint256"
        }
      ],
      "stateMutability": "view",
      "type": "function",
      "constant": true
    },
    {
      "inputs": [
        {
          "internalType": "address",
          "name": "account",
          "type": "address"
        },
        {
          "internalType": "uint256",
          "name": "blockNumber",
          "type": "uint256"
        },
        {
          "internalType": "bytes",
          "name": "params",
          "type": "bytes"
        }
      ],
      "name": "getVotesWithParams",
      "outputs": [
        {
          "internalType": "uint256",
          "name": "",
          "type": "uint256"
        }
      ],
      "stateMutability": "view",
      "type": "function",
      "constant": true
    },
    {
      "inputs": [
        {
          "internalType": "uint256",
          "name": "proposalId",
          "type": "uint256"
        },
        {
          "internalType": "address",
          "name": "account",
          "type": "address"
        }
      ],
      "name": "hasVoted",
      "outputs": [
        {
          "internalType": "bool",
          "name": "",
          "type": "bool"
        }
      ],
      "stateMutability": "view",
      "type": "function",
      "constant": true
    },
    {
      "inputs": [
        {
          "internalType": "address[]",
          "name": "targets",
          "type": "address[]"
        },
        {
          "internalType": "uint256[]",
          "name": "values",
          "type": "uint256[]"
        },
        {
          "internalType": "bytes[]",
          "name": "calldatas",
          "type": "bytes[]"
        },
        {
          "internalType": "bytes32",
          "name": "descriptionHash",
          "type": "bytes32"
        }
      ],
      "name": "hashProposal",
      "outputs": [
        {
          "internalType": "uint256",
          "name": "",
          "type": "uint256"
        }
      ],
      "stateMutability": "pure",
      "type": "function",
      "constant": true
    },
    {
      "inputs": [],
      "name": "name",
      "outputs": [
        {
          "internalType": "string",
          "name": "",
          "type": "string"
        }
      ],
      "stateMutability": "view",
      "type": "function",
      "constant": true
    },
    {
      "inputs": [
        {
          "internalType": "address",
          "name": "",
          "type": "address"
        },
        {
          "internalType": "address",
          "name": "",
          "type": "address"
        },
        {
          "internalType": "uint256[]",
          "name": "",
          "type": "uint256[]"
        },
        {
          "internalType": "uint256[]",
          "name": "",
          "type": "uint256[]"
        },
        {
          "internalType": "bytes",
          "name": "",
          "type": "bytes"
        }
      ],
      "name": "onERC1155BatchReceived",
      "outputs": [
        {
          "internalType": "bytes4",
          "name": "",
          "type": "bytes4"
        }
      ],
      "stateMutability": "nonpayable",
      "type": "function"
    },
    {
      "inputs": [
        {
          "internalType": "address",
          "name": "",
          "type": "address"
        },
        {
          "internalType": "address",
          "name": "",
          "type": "address"
        },
        {
          "internalType": "uint256",
          "name": "",
          "type": "uint256"
        },
        {
          "internalType": "uint256",
          "name": "",
          "type": "uint256"
        },
        {
          "internalType": "bytes",
          "name": "",
          "type": "bytes"
        }
      ],
      "name": "onERC1155Received",
      "outputs": [
        {
          "internalType": "bytes4",
          "name": "",
          "type": "bytes4"
        }
      ],
      "stateMutability": "nonpayable",
      "type": "function"
    },
    {
      "inputs": [
        {
          "internalType": "address",
          "name": "",
          "type": "address"
        },
        {
          "internalType": "address",
          "name": "",
          "type": "address"
        },
        {
          "internalType": "uint256",
          "name": "",
          "type": "uint256"
        },
        {
          "internalType": "bytes",
          "name": "",
          "type": "bytes"
        }
      ],
      "name": "onERC721Received",
      "outputs": [
        {
          "internalType": "bytes4",
          "name": "",
          "type": "bytes4"
        }
      ],
      "stateMutability": "nonpayable",
      "type": "function"
    },
    {
      "inputs": [
        {
          "internalType": "uint256",
          "name": "proposalId",
          "type": "uint256"
        }
      ],
      "name": "proposalDeadline",
      "outputs": [
        {
          "internalType": "uint256",
          "name": "",
          "type": "uint256"
        }
      ],
      "stateMutability": "view",
      "type": "function",
      "constant": true
    },
    {
      "inputs": [
        {
          "internalType": "uint256",
          "name": "proposalId",
          "type": "uint256"
        }
      ],
      "name": "proposalEta",
      "outputs": [
        {
          "internalType": "uint256",
          "name": "",
          "type": "uint256"
        }
      ],
      "stateMutability": "view",
      "type": "function",
      "constant": true
    },
    {
      "inputs": [
        {
          "internalType": "uint256",
          "name": "proposalId",
          "type": "uint256"
        }
      ],
      "name": "proposalSnapshot",
      "outputs": [
        {
          "internalType": "uint256",
          "name": "",
          "type": "uint256"
        }
      ],
      "stateMutability": "view",
      "type": "function",
      "constant": true
    },
    {
      "inputs": [
        {
          "internalType": "uint256",
          "name": "proposalId",
          "type": "uint256"
        }
      ],
      "name": "proposalVotes",
      "outputs": [
        {
          "internalType": "uint256",
          "name": "againstVotes",
          "type": "uint256"
        },
        {
          "internalType": "uint256",
          "name": "forVotes",
          "type": "uint256"
        },
        {
          "internalType": "uint256",
          "name": "abstainVotes",
          "type": "uint256"
        }
      ],
      "stateMutability": "view",
      "type": "function",
      "constant": true
    },
    {
      "inputs": [
        {
          "internalType": "address[]",
          "name": "targets",
          "type": "address[]"
        },
        {
          "internalType": "uint256[]",
          "name": "values",
          "type": "uint256[]"
        },
        {
          "internalType": "bytes[]",
          "name": "calldatas",
          "type": "bytes[]"
        },
        {
          "internalType": "bytes32",
          "name": "descriptionHash",
          "type": "bytes32"
        }
      ],
      "name": "queue",
      "outputs": [
        {
          "internalType": "uint256",
          "name": "",
          "type": "uint256"
        }
      ],
      "stateMutability": "nonpayable",
      "type": "function"
    },
    {
      "inputs": [],
      "name": "quorumDenominator",
      "outputs": [
        {
          "internalType": "uint256",
          "name": "",
          "type": "uint256"
        }
      ],
      "stateMutability": "view",
      "type": "function",
      "constant": true
    },
    {
      "inputs": [],
      "name": "quorumNumerator",
      "outputs": [
        {
          "internalType": "uint256",
          "name": "",
          "type": "uint256"
        }
      ],
      "stateMutability": "view",
      "type": "function",
      "constant": true
    },
    {
      "inputs": [
        {
          "internalType": "address",
          "name": "target",
          "type": "address"
        },
        {
          "internalType": "uint256",
          "name": "value",
          "type": "uint256"
        },
        {
          "internalType": "bytes",
          "name": "data",
          "type": "bytes"
        }
      ],
      "name": "relay",
      "outputs": [],
      "stateMutability": "nonpayable",
      "type": "function"
    },
    {
      "inputs": [
        {
          "internalType": "uint256",
          "name": "newProposalThreshold",
          "type": "uint256"
        }
      ],
      "name": "setProposalThreshold",
      "outputs": [],
      "stateMutability": "nonpayable",
      "type": "function"
    },
    {
      "inputs": [
        {
          "internalType": "uint256",
          "name": "newVotingDelay",
          "type": "uint256"
        }
      ],
      "name": "setVotingDelay",
      "outputs": [],
      "stateMutability": "nonpayable",
      "type": "function"
    },
    {
      "inputs": [
        {
          "internalType": "uint256",
          "name": "newVotingPeriod",
          "type": "uint256"
        }
      ],
      "name": "setVotingPeriod",
      "outputs": [],
      "stateMutability": "nonpayable",
      "type": "function"
    },
    {
      "inputs": [],
      "name": "timelock",
      "outputs": [
        {
          "internalType": "address",
          "name": "",
          "type": "address"
        }
      ],
      "stateMutability": "view",
      "type": "function",
      "constant": true
    },
    {
      "inputs": [],
      "name": "token",
      "outputs": [
        {
          "internalType": "contract IVotes",
          "name": "",
          "type": "address"
        }
      ],
      "stateMutability": "view",
      "type": "function",
      "constant": true
    },
    {
      "inputs": [
        {
          "internalType": "uint256",
          "name": "newQuorumNumerator",
          "type": "uint256"
        }
      ],
      "name": "updateQuorumNumerator",
      "outputs": [],
      "stateMutability": "nonpayable",
      "type": "function"
    },
    {
      "inputs": [
        {
          "internalType": "contract TimelockController",
          "name": "newTimelock",
          "type": "address"
        }
      ],
      "name": "updateTimelock",
      "outputs": [],
      "stateMutability": "nonpayable",
      "type": "function"
    },
    {
      "inputs": [],
      "name": "version",
      "outputs": [
        {
          "internalType": "string",
          "name": "",
          "type": "string"
        }
      ],
      "stateMutability": "view",
      "type": "function",
      "constant": true
    },
    {
      "stateMutability": "payable",
      "type": "receive",
      "payable": true
    },
    {
      "inputs": [],
      "name": "votingDelay",
      "outputs": [
        {
          "internalType": "uint256",
          "name": "",
          "type": "uint256"
        }
      ],
      "stateMutability": "view",
      "type": "function",
      "constant": true
    },
    {
      "inputs": [],
      "name": "votingPeriod",
      "outputs": [
        {
          "internalType": "uint256",
          "name": "",
          "type": "uint256"
        }
      ],
      "stateMutability": "view",
      "type": "function",
      "constant": true
    },
    {
      "inputs": [
        {
          "internalType": "uint256",
          "name": "blockNumber",
          "type": "uint256"
        }
      ],
      "name": "quorum",
      "outputs": [
        {
          "internalType": "uint256",
          "name": "",
          "type": "uint256"
        }
      ],
      "stateMutability": "view",
      "type": "function",
      "constant": true
    },
    {
      "inputs": [
        {
          "internalType": "uint256",
          "name": "proposalId",
          "type": "uint256"
        }
      ],
      "name": "state",
      "outputs": [
        {
          "internalType": "enum IGovernor.ProposalState",
          "name": "",
          "type": "uint8"
        }
      ],
      "stateMutability": "view",
      "type": "function",
      "constant": true
    },
    {
      "inputs": [
        {
          "internalType": "address[]",
          "name": "targets",
          "type": "address[]"
        },
        {
          "internalType": "uint256[]",
          "name": "values",
          "type": "uint256[]"
        },
        {
          "internalType": "bytes[]",
          "name": "calldatas",
          "type": "bytes[]"
        },
        {
          "internalType": "string",
          "name": "description",
          "type": "string"
        }
      ],
      "name": "propose",
      "outputs": [
        {
          "internalType": "uint256",
          "name": "",
          "type": "uint256"
        }
      ],
      "stateMutability": "nonpayable",
      "type": "function"
    },
    {
      "inputs": [],
      "name": "proposalThreshold",
      "outputs": [
        {
          "internalType": "uint256",
          "name": "",
          "type": "uint256"
        }
      ],
      "stateMutability": "view",
      "type": "function",
      "constant": true
    },
    {
      "inputs": [
        {
          "internalType": "bytes4",
          "name": "interfaceId",
          "type": "bytes4"
        }
      ],
      "name": "supportsInterface",
      "outputs": [
        {
          "internalType": "bool",
          "name": "",
          "type": "bool"
        }
      ],
      "stateMutability": "view",
      "type": "function",
      "constant": true
    }
  ],
  "bytecode": "0x6101606040523480156200001257600080fd5b5060405162003cd538038062003cd58339810160408190526200003591620004a4565b8481878686866040518060400160405280600b81526020016a2930ba23b7bb32b93737b960a91b81525080620000706200016e60201b60201c565b815160208084019190912082518383012060e08290526101008190524660a0818152604080517f8b73c3c69bb8fe3d512ecc4cf759cc79239f7b179b0ffacaa9a75d522b39400f81880181905281830187905260608201869052608082019490945230818401528151808203909301835260c00190528051940193909320919290916080523060c0526101205250508251620001169250600091506020840190620003e5565b506200012490508362000189565b6200012f82620001ca565b6200013a8162000271565b5050506001600160a01b0316610140526200015581620002b2565b5062000161816200037c565b5050505050505062000543565b6040805180820190915260018152603160f81b602082015290565b60045460408051918252602082018390527fc565b045403dc03c2eea82b81a0465edad9e2e7fc4d97e11421c209da93d7a93910160405180910390a1600455565b60008111620002305760405162461bcd60e51b815260206004820152602760248201527f476f7665726e6f7253657474696e67733a20766f74696e6720706572696f6420604482015266746f6f206c6f7760c81b60648201526084015b60405180910390fd5b60055460408051918252602082018390527f7e3f7f0708a84de9203036abaa450dccc85ad5ff52f78c170f3edb55cf5e8828910160405180910390a1600555565b60065460408051918252602082018390527fccb45da8d5717e6c4544694297c4ba5cf151d455c9bb0ed4fc7a38411bc05461910160405180910390a1600655565b6064811115620003375760405162461bcd60e51b815260206004820152604360248201527f476f7665726e6f72566f74657351756f72756d4672616374696f6e3a2071756f60448201527f72756d4e756d657261746f72206f7665722071756f72756d44656e6f6d696e616064820152623a37b960e91b608482015260a40162000227565b600880549082905560408051828152602081018490527f0553476bf02ef2726e8ce5ced78d63e26e602e4a2257b1f559418e24b4633997910160405180910390a15050565b600954604080516001600160a01b03928316815291831660208301527f08f74ea46ef7894f65eabfb5e6e695de773a000b47c529ab559178069b226401910160405180910390a1600980546001600160a01b0319166001600160a01b0392909216919091179055565b828054620003f39062000507565b90600052602060002090601f01602090048101928262000417576000855562000462565b82601f106200043257805160ff191683800117855562000462565b8280016001018555821562000462579182015b828111156200046257825182559160200191906001019062000445565b506200047092915062000474565b5090565b5b8082111562000470576000815560010162000475565b6001600160a01b0381168114620004a157600080fd5b50565b60008060008060008060c08789031215620004be57600080fd5b8651620004cb816200048b565b6020880151909650620004de816200048b565b6040880151606089015160808a015160a0909a0151989b929a5090989097909650945092505050565b600181811c908216806200051c57607f821691505b6020821081036200053d57634e487b7160e01b600052602260045260246000fd5b50919050565b60805160a05160c05160e051610100516101205161014051613729620005ac6000396000818161084b01528181611c3d0152611e3801526000611fb40152600061200301526000611fde01526000611f3701526000611f6101526000611f8b01526137296000f3fe60806040526004361061023f5760003560e01c80637d5e81e21161012e578063c59057e4116100ab578063eb9019d41161006f578063eb9019d4146107ad578063ece40cc1146107cd578063f23a6e61146107ed578063f8ce560a14610819578063fc0c546a1461083957600080fd5b8063c59057e4146106c1578063d33219b4146106e1578063dd4e2ba514610713578063deaaa7cc14610759578063ea0217cf1461078d57600080fd5b8063ab58fb8e116100f2578063ab58fb8e14610620578063b58131b014610640578063bc197c8114610655578063c01f9e3714610681578063c28bc2fa146106a157600080fd5b80637d5e81e21461059757806397c3d334146105b75780639a802a6d146105cb578063a7713a70146105eb578063a890c9101461060057600080fd5b80633932abb1116101bc57806354fd4d501161018057806354fd4d50146104ed57806356781388146105175780635f398a141461053757806370b0f660146105575780637b3c71d31461057757600080fd5b80633932abb1146103ec5780633bccf4fd146104015780633e4f49e614610421578063438596321461044e578063544ffc9c1461049857600080fd5b8063150b7a0211610203578063150b7a0214610321578063160cbed7146103655780632656227d146103855780632d63f693146103985780632fe3e261146103b857600080fd5b806301ffc9a71461026757806302a251a31461029c57806303420181146102bf57806306f3f9e6146102df57806306fdde03146102ff57600080fd5b36610262573061024d61086d565b6001600160a01b03161461026057600080fd5b005b600080fd5b34801561027357600080fd5b5061028761028236600461282f565b610886565b60405190151581526020015b60405180910390f35b3480156102a857600080fd5b506102b1610897565b604051908152602001610293565b3480156102cb57600080fd5b506102b16102da366004612974565b6108a2565b3480156102eb57600080fd5b506102606102fa366004612a1a565b61099a565b34801561030b57600080fd5b50610314610a2d565b6040516102939190612a8f565b34801561032d57600080fd5b5061034c61033c366004612ab7565b630a85bd0160e11b949350505050565b6040516001600160e01b03199091168152602001610293565b34801561037157600080fd5b506102b1610380366004612c93565b610abf565b6102b1610393366004612c93565b610cbf565b3480156103a457600080fd5b506102b16103b3366004612a1a565b610dac565b3480156103c457600080fd5b506102b17fb3b3f3b703cd84ce352197dcff232b1b5d3cfb2025ce47cf04742d0651f1af8881565b3480156103f857600080fd5b506102b1610de3565b34801561040d57600080fd5b506102b161041c366004612d22565b610dee565b34801561042d57600080fd5b5061044161043c366004612a1a565b610e64565b6040516102939190612d86565b34801561045a57600080fd5b50610287610469366004612dae565b60008281526007602090815260408083206001600160a01b038516845260030190915290205460ff1692915050565b3480156104a457600080fd5b506104d26104b3366004612a1a565b6000908152600760205260409020805460018201546002909201549092565b60408051938452602084019290925290820152606001610293565b3480156104f957600080fd5b506040805180820190915260018152603160f81b6020820152610314565b34801561052357600080fd5b506102b1610532366004612dde565b610e6f565b34801561054357600080fd5b506102b1610552366004612e0a565b610e98565b34801561056357600080fd5b50610260610572366004612a1a565b610ee2565b34801561058357600080fd5b506102b1610592366004612e8d565b610f69565b3480156105a357600080fd5b506102b16105b2366004612ee6565b610fbb565b3480156105c357600080fd5b5060646102b1565b3480156105d757600080fd5b506102b16105e6366004612f9a565b610fd2565b3480156105f757600080fd5b506008546102b1565b34801561060c57600080fd5b5061026061061b366004612ff2565b610fe9565b34801561062c57600080fd5b506102b161063b366004612a1a565b611070565b34801561064c57600080fd5b506102b161110a565b34801561066157600080fd5b5061034c61067036600461300f565b63bc197c8160e01b95945050505050565b34801561068d57600080fd5b506102b161069c366004612a1a565b611115565b3480156106ad57600080fd5b506102606106bc3660046130a2565b611144565b3480156106cd57600080fd5b506102b16106dc366004612c93565b61120b565b3480156106ed57600080fd5b506009546001600160a01b03165b6040516001600160a01b039091168152602001610293565b34801561071f57600080fd5b506040805180820190915260208082527f737570706f72743d627261766f2671756f72756d3d666f722c6162737461696e90820152610314565b34801561076557600080fd5b506102b17f150214d74d59b7d1e90c73fc22ef3d991dd0a76b046543d4d80ab92d2a50328f81565b34801561079957600080fd5b506102606107a8366004612a1a565b611245565b3480156107b957600080fd5b506102b16107c83660046130e5565b6112cc565b3480156107d957600080fd5b506102606107e8366004612a1a565b6112ed565b3480156107f957600080fd5b5061034c610808366004613111565b63f23a6e6160e01b95945050505050565b34801561082557600080fd5b506102b1610834366004612a1a565b611374565b34801561084557600080fd5b506106fb7f000000000000000000000000000000000000000000000000000000000000000081565b60006108816009546001600160a01b031690565b905090565b60006108918261137f565b92915050565b600061088160055490565b60008061094661093e7fb3b3f3b703cd84ce352197dcff232b1b5d3cfb2025ce47cf04742d0651f1af888c8c8c8c6040516108de929190613179565b60405180910390208b80519060200120604051602001610923959493929190948552602085019390935260ff9190911660408401526060830152608082015260a00190565b604051602081830303815290604052805190602001206113a4565b8686866113f2565b905061098c8a828b8b8b8080601f0160208091040260200160405190810160405280939291908181526020018383808284376000920191909152508d9250611410915050565b9a9950505050505050505050565b6109a261086d565b6001600160a01b0316336001600160a01b0316146109db5760405162461bcd60e51b81526004016109d290613189565b60405180910390fd5b306109e461086d565b6001600160a01b031614610a215760008036604051610a04929190613179565b604051809103902090505b80610a1a6002611575565b03610a0f57505b610a2a816115f4565b50565b606060008054610a3c906131c0565b80601f0160208091040260200160405190810160405280929190818152602001828054610a68906131c0565b8015610ab55780601f10610a8a57610100808354040283529160200191610ab5565b820191906000526020600020905b815481529060010190602001808311610a9857829003601f168201915b5050505050905090565b600080610ace8686868661120b565b90506004610adb82610e64565b6007811115610aec57610aec612d70565b14610b095760405162461bcd60e51b81526004016109d2906131fa565b6009546040805163793d064960e11b815290516000926001600160a01b03169163f27a0c929160048083019260209291908290030181865afa158015610b53573d6000803e3d6000fd5b505050506040513d601f19601f82011682018060405250810190610b77919061323b565b60095460405163b1c5f42760e01b81529192506001600160a01b03169063b1c5f42790610bb1908a908a908a906000908b9060040161331d565b602060405180830381865afa158015610bce573d6000803e3d6000fd5b505050506040513d601f19601f82011682018060405250810190610bf2919061323b565b6000838152600a60205260408082209290925560095491516308f2a0bb60e41b81526001600160a01b0390921691638f2a0bb091610c3d918b918b918b91908b90899060040161336b565b600060405180830381600087803b158015610c5757600080fd5b505af1158015610c6b573d6000803e3d6000fd5b505050507f9a2e42fd6722813d69113e7d0079d3d940171428df7373df9c7f7617cfda2892828242610c9d91906133d9565b6040805192835260208301919091520160405180910390a15095945050505050565b600080610cce8686868661120b565b90506000610cdb82610e64565b90506004816007811115610cf157610cf1612d70565b1480610d0e57506005816007811115610d0c57610d0c612d70565b145b610d2a5760405162461bcd60e51b81526004016109d2906131fa565b600082815260016020818152604092839020600201805460ff191690921790915590518381527f712ae1383f79ac853f8d882153778e0260ef8f03b504e2866e0593e04d2b291f910160405180910390a1610d8882888888886116bc565b610d95828888888861175d565b610da2828888888861176a565b5095945050505050565b60008181526001602090815260408083208151928301909152546001600160401b0316908190525b6001600160401b031692915050565b600061088160045490565b604080517f150214d74d59b7d1e90c73fc22ef3d991dd0a76b046543d4d80ab92d2a50328f602082015290810186905260ff851660608201526000908190610e3c9061093e90608001610923565b9050610e59878288604051806020016040528060008152506117a3565b979650505050505050565b6000610891826117c6565b600080339050610e90848285604051806020016040528060008152506117a3565b949350505050565b600080339050610e5987828888888080601f0160208091040260200160405190810160405280939291908181526020018383808284376000920191909152508a9250611410915050565b610eea61086d565b6001600160a01b0316336001600160a01b031614610f1a5760405162461bcd60e51b81526004016109d290613189565b30610f2361086d565b6001600160a01b031614610f605760008036604051610f43929190613179565b604051809103902090505b80610f596002611575565b03610f4e57505b610a2a81611910565b600080339050610fb186828787878080601f0160208091040260200160405190810160405280939291908181526020018383808284376000920191909152506117a392505050565b9695505050505050565b6000610fc985858585611951565b95945050505050565b6000610fdf848484611c14565b90505b9392505050565b610ff161086d565b6001600160a01b0316336001600160a01b0316146110215760405162461bcd60e51b81526004016109d290613189565b3061102a61086d565b6001600160a01b031614611067576000803660405161104a929190613179565b604051809103902090505b806110606002611575565b0361105557505b610a2a81611caa565b6009546000828152600a602052604080822054905163d45c443560e01b81526004810191909152909182916001600160a01b039091169063d45c443590602401602060405180830381865afa1580156110cd573d6000803e3d6000fd5b505050506040513d601f19601f820116820180604052508101906110f1919061323b565b9050806001146111015780610fe2565b60009392505050565b600061088160065490565b60008181526001602081815260408084208151928301909152909101546001600160401b031690819052610dd4565b61114c61086d565b6001600160a01b0316336001600160a01b03161461117c5760405162461bcd60e51b81526004016109d290613189565b3061118561086d565b6001600160a01b0316146111c257600080366040516111a5929190613179565b604051809103902090505b806111bb6002611575565b036111b057505b6112048483838080601f016020809104026020016040519081016040528093929190818152602001838380828437600092019190915250889250611d13915050565b5050505050565b60008484848460405160200161122494939291906133f1565b60408051601f19818403018152919052805160209091012095945050505050565b61124d61086d565b6001600160a01b0316336001600160a01b03161461127d5760405162461bcd60e51b81526004016109d290613189565b3061128661086d565b6001600160a01b0316146112c357600080366040516112a6929190613179565b604051809103902090505b806112bc6002611575565b036112b157505b610a2a81611d39565b6000610fe283836112e860408051602081019091526000815290565b611c14565b6112f561086d565b6001600160a01b0316336001600160a01b0316146113255760405162461bcd60e51b81526004016109d290613189565b3061132e61086d565b6001600160a01b03161461136b576000803660405161134e929190613179565b604051809103902090505b806113646002611575565b0361135957505b610a2a81611dda565b600061089182611e1b565b60006001600160e01b03198216636e665ced60e01b1480610891575061089182611ebf565b60006108916113b1611f2a565b8360405161190160f01b6020820152602281018390526042810182905260009060620160405160208183030381529060405280519060200120905092915050565b600080600061140387878787612051565b91509150610da28161213e565b600085815260016020819052604082209061142a88610e64565b600781111561143b5761143b612d70565b146114945760405162461bcd60e51b815260206004820152602360248201527f476f7665726e6f723a20766f7465206e6f742063757272656e746c792061637460448201526269766560e81b60648201526084016109d2565b604080516020810190915281546001600160401b0316908190526000906114bd90889086611c14565b90506114cc88888884886122f4565b835160000361152157866001600160a01b03167fb8e138887d0aa13bab447e82de9d5c1777041ecd21ca36ba824ff1e6c07ddda489888489604051611514949392919061343c565b60405180910390a2610e59565b866001600160a01b03167fe2babfbac5889a709b63bb7f598b324e08bc5a4fb9ec647fb3cbc9ec07eb87128988848989604051611562959493929190613464565b60405180910390a2979650505050505050565b60006115908254600f81810b600160801b909204900b131590565b156115ae57604051631ed9509560e11b815260040160405180910390fd5b508054600f0b6000818152600180840160205260408220805492905583546fffffffffffffffffffffffffffffffff191692016001600160801b03169190911790915590565b60648111156116775760405162461bcd60e51b815260206004820152604360248201527f476f7665726e6f72566f74657351756f72756d4672616374696f6e3a2071756f60448201527f72756d4e756d657261746f72206f7665722071756f72756d44656e6f6d696e616064820152623a37b960e91b608482015260a4016109d2565b600880549082905560408051828152602081018490527f0553476bf02ef2726e8ce5ced78d63e26e602e4a2257b1f559418e24b4633997910160405180910390a15050565b306116c561086d565b6001600160a01b0316146112045760005b845181101561175557306001600160a01b03168582815181106116fb576116fb6134aa565b60200260200101516001600160a01b03160361174557611745838281518110611726576117266134aa565b602002602001015180519060200120600261246e90919063ffffffff16565b61174e816134c0565b90506116d6565b505050505050565b61120485858585856124aa565b3061177361086d565b6001600160a01b03161461120457600254600f81810b600160801b909204900b1315611204576000600255611204565b6000610fc9858585856117c160408051602081019091526000815290565b611410565b6000806117d28361251e565b905060048160078111156117e8576117e8612d70565b146117f35792915050565b6000838152600a60205260409020548061180e575092915050565b600954604051632ab0f52960e01b8152600481018390526001600160a01b0390911690632ab0f52990602401602060405180830381865afa158015611857573d6000803e3d6000fd5b505050506040513d601f19601f8201168201806040525081019061187b91906134d9565b1561188a575060079392505050565b600954604051632c258a9f60e11b8152600481018390526001600160a01b039091169063584b153e90602401602060405180830381865afa1580156118d3573d6000803e3d6000fd5b505050506040513d601f19601f820116820180604052508101906118f791906134d9565b15611906575060059392505050565b5060029392505050565b60045460408051918252602082018390527fc565b045403dc03c2eea82b81a0465edad9e2e7fc4d97e11421c209da93d7a93910160405180910390a1600455565b600061195b61110a565b61196a336107c86001436134fb565b10156119d25760405162461bcd60e51b815260206004820152603160248201527f476f7665726e6f723a2070726f706f73657220766f7465732062656c6f7720706044820152701c9bdc1bdcd85b081d1a1c995cda1bdb19607a1b60648201526084016109d2565b60006119e7868686868051906020012061120b565b90508451865114611a0a5760405162461bcd60e51b81526004016109d290613512565b8351865114611a2b5760405162461bcd60e51b81526004016109d290613512565b6000865111611a7c5760405162461bcd60e51b815260206004820152601860248201527f476f7665726e6f723a20656d7074792070726f706f73616c000000000000000060448201526064016109d2565b600081815260016020908152604091829020825191820190925281546001600160401b03169081905215611afc5760405162461bcd60e51b815260206004820152602160248201527f476f7665726e6f723a2070726f706f73616c20616c72656164792065786973746044820152607360f81b60648201526084016109d2565b6000611b0e611b09610de3565b61262d565b611b174361262d565b611b219190613553565b90506000611b30611b09610897565b611b3a9083613553565b835467ffffffffffffffff19166001600160401b038416178455905060018301805467ffffffffffffffff19166001600160401b0383161790557f7d84a6263ae0d98d3329bd7b46bb4e8d6f98cd35a7adb45c274c8b7fd5ebd5e084338b8b8d516001600160401b03811115611bb257611bb26128b7565b604051908082528060200260200182016040528015611be557816020015b6060815260200190600190039081611bd05790505b508c88888e604051611bff9998979695949392919061357e565b60405180910390a15091979650505050505050565b604051630748d63560e31b81526001600160a01b038481166004830152602482018490526000917f000000000000000000000000000000000000000000000000000000000000000090911690633a46b1a890604401602060405180830381865afa158015611c86573d6000803e3d6000fd5b505050506040513d601f19601f82011682018060405250810190610fdf919061323b565b600954604080516001600160a01b03928316815291831660208301527f08f74ea46ef7894f65eabfb5e6e695de773a000b47c529ab559178069b226401910160405180910390a1600980546001600160a01b0319166001600160a01b0392909216919091179055565b6060610fdf8484846040518060600160405280602981526020016136cb60299139612699565b60008111611d995760405162461bcd60e51b815260206004820152602760248201527f476f7665726e6f7253657474696e67733a20766f74696e6720706572696f6420604482015266746f6f206c6f7760c81b60648201526084016109d2565b60055460408051918252602082018390527f7e3f7f0708a84de9203036abaa450dccc85ad5ff52f78c170f3edb55cf5e8828910160405180910390a1600555565b60065460408051918252602082018390527fccb45da8d5717e6c4544694297c4ba5cf151d455c9bb0ed4fc7a38411bc05461910160405180910390a1600655565b60006064600854604051632394e7a360e21b8152600481018590527f00000000000000000000000000000000000000000000000000000000000000006001600160a01b031690638e539e8c90602401602060405180830381865afa158015611e87573d6000803e3d6000fd5b505050506040513d601f19601f82011682018060405250810190611eab919061323b565b611eb5919061366d565b610891919061368c565b60006001600160e01b0319821663bf26d89760e01b1480611ef057506001600160e01b031982166379dd796f60e01b145b80611f0b57506001600160e01b03198216630271189760e51b145b8061089157506301ffc9a760e01b6001600160e01b0319831614610891565b6000306001600160a01b037f000000000000000000000000000000000000000000000000000000000000000016148015611f8357507f000000000000000000000000000000000000000000000000000000000000000046145b15611fad57507f000000000000000000000000000000000000000000000000000000000000000090565b50604080517f00000000000000000000000000000000000000000000000000000000000000006020808301919091527f0000000000000000000000000000000000000000000000000000000000000000828401527f000000000000000000000000000000000000000000000000000000000000000060608301524660808301523060a0808401919091528351808403909101815260c0909201909252805191012090565b6000807f7fffffffffffffffffffffffffffffff5d576e7357a4501ddfe92f46681b20a08311156120885750600090506003612135565b8460ff16601b141580156120a057508460ff16601c14155b156120b15750600090506004612135565b6040805160008082526020820180845289905260ff881692820192909252606081018690526080810185905260019060a0016020604051602081039080840390855afa158015612105573d6000803e3d6000fd5b5050604051601f1901519150506001600160a01b03811661212e57600060019250925050612135565b9150600090505b94509492505050565b600081600481111561215257612152612d70565b0361215a5750565b600181600481111561216e5761216e612d70565b036121bb5760405162461bcd60e51b815260206004820152601860248201527f45434453413a20696e76616c6964207369676e6174757265000000000000000060448201526064016109d2565b60028160048111156121cf576121cf612d70565b0361221c5760405162461bcd60e51b815260206004820152601f60248201527f45434453413a20696e76616c6964207369676e6174757265206c656e6774680060448201526064016109d2565b600381600481111561223057612230612d70565b036122885760405162461bcd60e51b815260206004820152602260248201527f45434453413a20696e76616c6964207369676e6174757265202773272076616c604482015261756560f01b60648201526084016109d2565b600481600481111561229c5761229c612d70565b03610a2a5760405162461bcd60e51b815260206004820152602260248201527f45434453413a20696e76616c6964207369676e6174757265202776272076616c604482015261756560f01b60648201526084016109d2565b60008581526007602090815260408083206001600160a01b0388168452600381019092529091205460ff161561237c5760405162461bcd60e51b815260206004820152602760248201527f476f7665726e6f72566f74696e6753696d706c653a20766f746520616c726561604482015266191e4818d85cdd60ca1b60648201526084016109d2565b6001600160a01b03851660009081526003820160205260409020805460ff1916600117905560ff84166123c857828160000160008282546123bd91906133d9565b909155506117559050565b60001960ff8516016123e857828160010160008282546123bd91906133d9565b60011960ff85160161240857828160020160008282546123bd91906133d9565b60405162461bcd60e51b815260206004820152603560248201527f476f7665726e6f72566f74696e6753696d706c653a20696e76616c69642076616044820152746c756520666f7220656e756d20566f74655479706560581b60648201526084016109d2565b8154600160801b90819004600f0b6000818152600180860160205260409091209390935583546001600160801b03908116939091011602179055565b60095460405163e38335e560e01b81526001600160a01b039091169063e38335e59034906124e590889088908890600090899060040161331d565b6000604051808303818588803b1580156124fe57600080fd5b505af1158015612512573d6000803e3d6000fd5b50505050505050505050565b6000818152600160205260408120600281015460ff16156125425750600792915050565b6002810154610100900460ff161561255d5750600292915050565b600061256884610dac565b9050806000036125ba5760405162461bcd60e51b815260206004820152601d60248201527f476f7665726e6f723a20756e6b6e6f776e2070726f706f73616c20696400000060448201526064016109d2565b4381106125cb575060009392505050565b60006125d685611115565b90504381106125ea57506001949350505050565b6125f3856127bf565b8015612612575060008581526007602052604090208054600190910154115b1561262257506004949350505050565b506003949350505050565b60006001600160401b038211156126955760405162461bcd60e51b815260206004820152602660248201527f53616665436173743a2076616c756520646f65736e27742066697420696e203660448201526534206269747360d01b60648201526084016109d2565b5090565b6060824710156126fa5760405162461bcd60e51b815260206004820152602660248201527f416464726573733a20696e73756666696369656e742062616c616e636520666f6044820152651c8818d85b1b60d21b60648201526084016109d2565b6001600160a01b0385163b6127515760405162461bcd60e51b815260206004820152601d60248201527f416464726573733a2063616c6c20746f206e6f6e2d636f6e747261637400000060448201526064016109d2565b600080866001600160a01b0316858760405161276d91906136ae565b60006040518083038185875af1925050503d80600081146127aa576040519150601f19603f3d011682016040523d82523d6000602084013e6127af565b606091505b5091509150610e598282866127f6565b6000818152600760205260408120600281015460018201546127e191906133d9565b6127ed61083485610dac565b11159392505050565b60608315612805575081610fe2565b8251156128155782518084602001fd5b8160405162461bcd60e51b81526004016109d29190612a8f565b60006020828403121561284157600080fd5b81356001600160e01b031981168114610fe257600080fd5b803560ff8116811461286a57600080fd5b919050565b60008083601f84011261288157600080fd5b5081356001600160401b0381111561289857600080fd5b6020830191508360208285010111156128b057600080fd5b9250929050565b634e487b7160e01b600052604160045260246000fd5b604051601f8201601f191681016001600160401b03811182821017156128f5576128f56128b7565b604052919050565b60006001600160401b03831115612916576129166128b7565b612929601f8401601f19166020016128cd565b905082815283838301111561293d57600080fd5b828260208301376000602084830101529392505050565b600082601f83011261296557600080fd5b610fe2838335602085016128fd565b60008060008060008060008060e0898b03121561299057600080fd5b883597506129a060208a01612859565b965060408901356001600160401b03808211156129bc57600080fd5b6129c88c838d0161286f565b909850965060608b01359150808211156129e157600080fd5b506129ee8b828c01612954565b9450506129fd60808a01612859565b925060a0890135915060c089013590509295985092959890939650565b600060208284031215612a2c57600080fd5b5035919050565b60005b83811015612a4e578181015183820152602001612a36565b83811115612a5d576000848401525b50505050565b60008151808452612a7b816020860160208601612a33565b601f01601f19169290920160200192915050565b602081526000610fe26020830184612a63565b6001600160a01b0381168114610a2a57600080fd5b60008060008060808587031215612acd57600080fd5b8435612ad881612aa2565b93506020850135612ae881612aa2565b92506040850135915060608501356001600160401b03811115612b0a57600080fd5b612b1687828801612954565b91505092959194509250565b60006001600160401b03821115612b3b57612b3b6128b7565b5060051b60200190565b600082601f830112612b5657600080fd5b81356020612b6b612b6683612b22565b6128cd565b82815260059290921b84018101918181019086841115612b8a57600080fd5b8286015b84811015612bae578035612ba181612aa2565b8352918301918301612b8e565b509695505050505050565b600082601f830112612bca57600080fd5b81356020612bda612b6683612b22565b82815260059290921b84018101918181019086841115612bf957600080fd5b8286015b84811015612bae5780358352918301918301612bfd565b600082601f830112612c2557600080fd5b81356020612c35612b6683612b22565b82815260059290921b84018101918181019086841115612c5457600080fd5b8286015b84811015612bae5780356001600160401b03811115612c775760008081fd5b612c858986838b0101612954565b845250918301918301612c58565b60008060008060808587031215612ca957600080fd5b84356001600160401b0380821115612cc057600080fd5b612ccc88838901612b45565b95506020870135915080821115612ce257600080fd5b612cee88838901612bb9565b94506040870135915080821115612d0457600080fd5b50612d1187828801612c14565b949793965093946060013593505050565b600080600080600060a08688031215612d3a57600080fd5b85359450612d4a60208701612859565b9350612d5860408701612859565b94979396509394606081013594506080013592915050565b634e487b7160e01b600052602160045260246000fd5b6020810160088310612da857634e487b7160e01b600052602160045260246000fd5b91905290565b60008060408385031215612dc157600080fd5b823591506020830135612dd381612aa2565b809150509250929050565b60008060408385031215612df157600080fd5b82359150612e0160208401612859565b90509250929050565b600080600080600060808688031215612e2257600080fd5b85359450612e3260208701612859565b935060408601356001600160401b0380821115612e4e57600080fd5b612e5a89838a0161286f565b90955093506060880135915080821115612e7357600080fd5b50612e8088828901612954565b9150509295509295909350565b60008060008060608587031215612ea357600080fd5b84359350612eb360208601612859565b925060408501356001600160401b03811115612ece57600080fd5b612eda8782880161286f565b95989497509550505050565b60008060008060808587031215612efc57600080fd5b84356001600160401b0380821115612f1357600080fd5b612f1f88838901612b45565b95506020870135915080821115612f3557600080fd5b612f4188838901612bb9565b94506040870135915080821115612f5757600080fd5b612f6388838901612c14565b93506060870135915080821115612f7957600080fd5b508501601f81018713612f8b57600080fd5b612b16878235602084016128fd565b600080600060608486031215612faf57600080fd5b8335612fba81612aa2565b92506020840135915060408401356001600160401b03811115612fdc57600080fd5b612fe886828701612954565b9150509250925092565b60006020828403121561300457600080fd5b8135610fe281612aa2565b600080600080600060a0868803121561302757600080fd5b853561303281612aa2565b9450602086013561304281612aa2565b935060408601356001600160401b038082111561305e57600080fd5b61306a89838a01612bb9565b9450606088013591508082111561308057600080fd5b61308c89838a01612bb9565b93506080880135915080821115612e7357600080fd5b600080600080606085870312156130b857600080fd5b84356130c381612aa2565b93506020850135925060408501356001600160401b03811115612ece57600080fd5b600080604083850312156130f857600080fd5b823561310381612aa2565b946020939093013593505050565b600080600080600060a0868803121561312957600080fd5b853561313481612aa2565b9450602086013561314481612aa2565b9350604086013592506060860135915060808601356001600160401b0381111561316d57600080fd5b612e8088828901612954565b8183823760009101908152919050565b60208082526018908201527f476f7665726e6f723a206f6e6c79476f7665726e616e63650000000000000000604082015260600190565b600181811c908216806131d457607f821691505b6020821081036131f457634e487b7160e01b600052602260045260246000fd5b50919050565b60208082526021908201527f476f7665726e6f723a2070726f706f73616c206e6f74207375636365737366756040820152601b60fa1b606082015260800190565b60006020828403121561324d57600080fd5b5051919050565b600081518084526020808501945080840160005b8381101561328d5781516001600160a01b031687529582019590820190600101613268565b509495945050505050565b600081518084526020808501945080840160005b8381101561328d578151875295820195908201906001016132ac565b600081518084526020808501808196508360051b8101915082860160005b858110156133105782840389526132fe848351612a63565b988501989350908401906001016132e6565b5091979650505050505050565b60a08152600061333060a0830188613254565b82810360208401526133428188613298565b9050828103604084015261335681876132c8565b60608401959095525050608001529392505050565b60c08152600061337e60c0830189613254565b82810360208401526133908189613298565b905082810360408401526133a481886132c8565b60608401969096525050608081019290925260a0909101529392505050565b634e487b7160e01b600052601160045260246000fd5b600082198211156133ec576133ec6133c3565b500190565b6080815260006134046080830187613254565b82810360208401526134168187613298565b9050828103604084015261342a81866132c8565b91505082606083015295945050505050565b84815260ff84166020820152826040820152608060608201526000610fb16080830184612a63565b85815260ff8516602082015283604082015260a06060820152600061348c60a0830185612a63565b828103608084015261349e8185612a63565b98975050505050505050565b634e487b7160e01b600052603260045260246000fd5b6000600182016134d2576134d26133c3565b5060010190565b6000602082840312156134eb57600080fd5b81518015158114610fe257600080fd5b60008282101561350d5761350d6133c3565b500390565b60208082526021908201527f476f7665726e6f723a20696e76616c69642070726f706f73616c206c656e67746040820152600d60fb1b606082015260800190565b60006001600160401b03808316818516808303821115613575576135756133c3565b01949350505050565b60006101208b8352602060018060a01b038c16818501528160408501526135a78285018c613254565b915083820360608501526135bb828b613298565b915083820360808501528189518084528284019150828160051b850101838c0160005b8381101561360c57601f198784030185526135fa838351612a63565b948601949250908501906001016135de565b505086810360a0880152613620818c6132c8565b94505050505061363b60c08401876001600160401b03169052565b6001600160401b03851660e084015282810361010084015261365d8185612a63565b9c9b505050505050505050505050565b6000816000190483118215151615613687576136876133c3565b500290565b6000826136a957634e487b7160e01b600052601260045260246000fd5b500490565b600082516136c0818460208701612a33565b919091019291505056fe416464726573733a206c6f772d6c6576656c2063616c6c20776974682076616c7565206661696c6564a2646970667358221220cee02da7ceb23ff232d18e535886a0c4e181a441d955c1f5c3755d07b8cfd5c864736f6c634300080d0033",
  "immutableReferences": {
    "4325": [
      {
        "length": 32,
        "start": 2123
      },
      {
        "length": 32,
        "start": 7229
      },
      {
        "length": 32,
        "start": 7736
      }
    ],
    "7462": [
      {
        "length": 32,
        "start": 8075
      }
    ],
    "7464": [
      {
        "length": 32,
        "start": 8033
      }
    ],
    "7466": [
      {
        "length": 32,
        "start": 7991
      }
    ],
    "7468": [
      {
        "length": 32,
        "start": 8158
      }
    ],
    "7470": [
      {
        "length": 32,
        "start": 8195
      }
    ],
    "7472": [
      {
        "length": 32,
        "start": 8116
      }
    ]
  },
  "source": "// SPDX-License-Identifier: MIT\npragma solidity ^0.8.4;\n\nimport \"@openzeppelin/contracts/governance/Governor.sol\";\nimport \"@openzeppelin/contracts/governance/extensions/GovernorSettings.sol\";\nimport \"@openzeppelin/contracts/governance/extensions/GovernorCountingSimple.sol\";\nimport \"@openzeppelin/contracts/governance/extensions/GovernorVotes.sol\";\nimport \"@openzeppelin/contracts/governance/extensions/GovernorVotesQuorumFraction.sol\";\nimport \"@openzeppelin/contracts/governance/extensions/GovernorTimelockControl.sol\";\n\ncontract RatGovernor is Governor, GovernorSettings, GovernorCountingSimple, GovernorVotes, GovernorVotesQuorumFraction, GovernorTimelockControl {\n  constructor(IVotes _token, TimelockController _timelock, uint256 _votingDelay, uint256 _votingPeriod, uint256 _proposalThreshold, uint256 _quorumNumeratorValue)\n  Governor(\"RatGovernor\")\n  GovernorSettings(_votingDelay, _votingPeriod, _proposalThreshold)\n  GovernorVotes(_token)\n  GovernorVotesQuorumFraction(_quorumNumeratorValue)\n  GovernorTimelockControl(_timelock)\n  {}\n\n  function votingDelay() public view override(IGovernor, GovernorSettings) returns (uint256) {\n    return super.votingDelay();\n  }\n\n  function votingPeriod() public view override(IGovernor, GovernorSettings) returns (uint256) {\n    return super.votingPeriod();\n  }\n\n  function quorum(uint256 blockNumber) public view override(IGovernor, GovernorVotesQuorumFraction) returns (uint256) {\n    return super.quorum(blockNumber);\n  }\n\n  function state(uint256 proposalId) public view override(Governor, GovernorTimelockControl) returns (ProposalState) {\n    return super.state(proposalId);\n  }\n\n  function propose(address[] memory targets, uint256[] memory values, bytes[] memory calldatas, string memory description) public override(Governor, IGovernor) returns (uint256) {\n    return super.propose(targets, values, calldatas, description);\n  }\n\n  function proposalThreshold() public view override(Governor, GovernorSettings) returns (uint256) {\n    return super.proposalThreshold();\n  }\n\n  function _execute(uint256 proposalId, address[] memory targets, uint256[] memory values, bytes[] memory calldatas, bytes32 descriptionHash) internal override(Governor, GovernorTimelockControl) {\n    super._execute(proposalId, targets, values, calldatas, descriptionHash);\n  }\n\n  function _cancel(address[] memory targets, uint256[] memory values, bytes[] memory calldatas, bytes32 descriptionHash) internal override(Governor, GovernorTimelockControl) returns (uint256) {\n    return super._cancel(targets, values, calldatas, descriptionHash);\n  }\n\n  function _executor() internal view override(Governor, GovernorTimelockControl) returns (address) {\n    return super._executor();\n  }\n\n  function supportsInterface(bytes4 interfaceId) public view override(Governor, GovernorTimelockControl) returns (bool) {\n    return super.supportsInterface(interfaceId);\n  }\n}\n",
  "sourcePath": "/Users/chris/workspace/ratalert/ratalert-dao/contracts/RatGovernor.sol",
  "compiler": {
    "name": "solc",
    "version": "0.8.13+commit.abaa5c0e.Emscripten.clang"
  },
  "schemaVersion": "3.4.7",
  "updatedAt": "2022-05-25T16:23:02.383Z",
  "networkType": "ethereum",
  "devdoc": {
    "errors": {
      "Empty()": [
        {
          "details": "An operation (e.g. {front}) couldn't be completed due to the queue being empty."
        }
      ]
    },
    "kind": "dev",
    "methods": {
      "COUNTING_MODE()": {
        "details": "See {IGovernor-COUNTING_MODE}."
      },
      "castVote(uint256,uint8)": {
        "details": "See {IGovernor-castVote}."
      },
      "castVoteBySig(uint256,uint8,uint8,bytes32,bytes32)": {
        "details": "See {IGovernor-castVoteBySig}."
      },
      "castVoteWithReason(uint256,uint8,string)": {
        "details": "See {IGovernor-castVoteWithReason}."
      },
      "castVoteWithReasonAndParams(uint256,uint8,string,bytes)": {
        "details": "See {IGovernor-castVoteWithReasonAndParams}."
      },
      "castVoteWithReasonAndParamsBySig(uint256,uint8,string,bytes,uint8,bytes32,bytes32)": {
        "details": "See {IGovernor-castVoteWithReasonAndParamsBySig}."
      },
      "execute(address[],uint256[],bytes[],bytes32)": {
        "details": "See {IGovernor-execute}."
      },
      "getVotes(address,uint256)": {
        "details": "See {IGovernor-getVotes}."
      },
      "getVotesWithParams(address,uint256,bytes)": {
        "details": "See {IGovernor-getVotesWithParams}."
      },
      "hasVoted(uint256,address)": {
        "details": "See {IGovernor-hasVoted}."
      },
      "hashProposal(address[],uint256[],bytes[],bytes32)": {
        "details": "See {IGovernor-hashProposal}. The proposal id is produced by hashing the RLC encoded `targets` array, the `values` array, the `calldatas` array and the descriptionHash (bytes32 which itself is the keccak256 hash of the description string). This proposal id can be produced from the proposal data which is part of the {ProposalCreated} event. It can even be computed in advance, before the proposal is submitted. Note that the chainId and the governor address are not part of the proposal id computation. Consequently, the same proposal (with same operation and same description) will have the same id if submitted on multiple governors across multiple networks. This also means that in order to execute the same operation twice (on the same governor) the proposer will have to change the description in order to avoid proposal id conflicts."
      },
      "name()": {
        "details": "See {IGovernor-name}."
      },
      "onERC1155BatchReceived(address,address,uint256[],uint256[],bytes)": {
        "details": "See {IERC1155Receiver-onERC1155BatchReceived}."
      },
      "onERC1155Received(address,address,uint256,uint256,bytes)": {
        "details": "See {IERC1155Receiver-onERC1155Received}."
      },
      "onERC721Received(address,address,uint256,bytes)": {
        "details": "See {IERC721Receiver-onERC721Received}."
      },
      "proposalDeadline(uint256)": {
        "details": "See {IGovernor-proposalDeadline}."
      },
      "proposalEta(uint256)": {
        "details": "Public accessor to check the eta of a queued proposal"
      },
      "proposalSnapshot(uint256)": {
        "details": "See {IGovernor-proposalSnapshot}."
      },
      "proposalVotes(uint256)": {
        "details": "Accessor to the internal vote counts."
      },
      "queue(address[],uint256[],bytes[],bytes32)": {
        "details": "Function to queue a proposal to the timelock."
      },
      "quorumDenominator()": {
        "details": "Returns the quorum denominator. Defaults to 100, but may be overridden."
      },
      "quorumNumerator()": {
        "details": "Returns the current quorum numerator. See {quorumDenominator}."
      },
      "relay(address,uint256,bytes)": {
        "details": "Relays a transaction or function call to an arbitrary target. In cases where the governance executor is some contract other than the governor itself, like when using a timelock, this function can be invoked in a governance proposal to recover tokens or Ether that was sent to the governor contract by mistake. Note that if the executor is simply the governor itself, use of `relay` is redundant."
      },
      "setProposalThreshold(uint256)": {
        "details": "Update the proposal threshold. This operation can only be performed through a governance proposal. Emits a {ProposalThresholdSet} event."
      },
      "setVotingDelay(uint256)": {
        "details": "Update the voting delay. This operation can only be performed through a governance proposal. Emits a {VotingDelaySet} event."
      },
      "setVotingPeriod(uint256)": {
        "details": "Update the voting period. This operation can only be performed through a governance proposal. Emits a {VotingPeriodSet} event."
      },
      "timelock()": {
        "details": "Public accessor to check the address of the timelock"
      },
      "updateQuorumNumerator(uint256)": {
        "details": "Changes the quorum numerator. Emits a {QuorumNumeratorUpdated} event. Requirements: - Must be called through a governance proposal. - New numerator must be smaller or equal to the denominator."
      },
      "updateTimelock(address)": {
        "details": "Public endpoint to update the underlying timelock instance. Restricted to the timelock itself, so updates must be proposed, scheduled, and executed through governance proposals. CAUTION: It is not recommended to change the timelock while there are other queued governance proposals."
      },
      "version()": {
        "details": "See {IGovernor-version}."
      }
    },
    "version": 1
  },
  "userdoc": {
    "kind": "user",
    "methods": {},
    "version": 1
  }
}